{
  "transactions": [
    {
      "hash": "0xa15468f3a7f796e49e5dc7b105a897587758f92e84228e8be857ba8fcf8a5f32",
      "transactionType": "CALL",
      "contractName": "AccountManager",
      "contractAddress": "0xdaE97900D4B184c5D2012dcdB658c008966466DD",
      "function": "openAccount(address,address[]):(address)",
      "arguments": [
        "0x9Df59df131dac41F7b87c5b73E0626022eC4e968",
        "[]"
      ],
      "transaction": {
        "type": "0x02",
        "from": "0x9df59df131dac41f7b87c5b73e0626022ec4e968",
        "to": "0xdae97900d4b184c5d2012dcdb658c008966466dd",
        "gas": "0x7514",
        "value": "0x0",
        "data": "0xcd9cffe20000000000000000000000009df59df131dac41f7b87c5b73e0626022ec4e96800000000000000000000000000000000000000000000000000000000000000400000000000000000000000000000000000000000000000000000000000000000",
        "nonce": "0x0",
        "accessList": []
      },
      "additionalContracts": [],
      "isFixedGasLimit": false
    }
  ],
  "receipts": [],
  "libraries": [],
  "pending": [
    "0xa15468f3a7f796e49e5dc7b105a897587758f92e84228e8be857ba8fcf8a5f32"
  ],
  "returns": {},
  "timestamp": 1698515099,
  "chain": 1,
  "multi": false,
  "commit": "32dff49"
}