{
  "transactions": [
    {
      "hash": "0xe2c0961fe59f91fada641ac18354469e9172abdc1c29ff10f86d336b876aedc4",
      "transactionType": "CALL",
      "contractName": null,
      "contractAddress": "0x7a250d5630b4cf539739df2c5dacb4c659f2488d",
      "function": "swapExactETHForTokens(uint256,address[],address,uint256)",
      "arguments": [
        "0",
        "[0xC02aaA39b223FE8D0A0e5C4F27eAD9083C756Cc2, 0x89dB13AEfbeA93968B21666e8B2F6CB83F25aA4b]",
        "0x41e8b90d6AeF1b9b5497e92C5119C41f8D353422",
        "1737096020"
      ],
      "transaction": {
        "from": "0x41e8b90d6aef1b9b5497e92c5119c41f8d353422",
        "to": "0x7a250d5630b4cf539739df2c5dacb4c659f2488d",
        "gas": "0x3569a",
        "value": "0xc7d713b49da0000",
        "input": "0x7ff36ab50000000000000000000000000000000000000000000000000000000000000000000000000000000000000000000000000000000000000000000000000000008000000000000000000000000041e8b90d6aef1b9b5497e92c5119c41f8d353422000000000000000000000000000000000000000000000000000000006789fb540000000000000000000000000000000000000000000000000000000000000002000000000000000000000000c02aaa39b223fe8d0a0e5c4f27ead9083c756cc200000000000000000000000089db13aefbea93968b21666e8b2f6cb83f25aa4b",
        "nonce": "0x10",
        "chainId": "0x1"
      },
      "additionalContracts": [],
      "isFixedGasLimit": false
    }
  ],
  "receipts": [
    {
      "status": "0x1",
      "cumulativeGasUsed": "0x26ab8",
      "logs": [
        {
          "address": "0xc02aaa39b223fe8d0a0e5c4f27ead9083c756cc2",
          "topics": [
            "0xe1fffcc4923d04b559f4d29a8bfc6cda04eb5b0d3c460751c2402c5c5cc9109c",
            "0x0000000000000000000000007a250d5630b4cf539739df2c5dacb4c659f2488d"
          ],
          "data": "0x0000000000000000000000000000000000000000000000000c7d713b49da0000",
          "blockHash": "0xd63797d2773b7e0f4e27a77df70f1020f9595fefbcdfa0275397d3d5e0da4760",
          "blockNumber": "0x14a3af5",
          "blockTimestamp": "0x6789e420",
          "transactionHash": "0xe2c0961fe59f91fada641ac18354469e9172abdc1c29ff10f86d336b876aedc4",
          "transactionIndex": "0x0",
          "logIndex": "0x0",
          "removed": false
        },
        {
          "address": "0xc02aaa39b223fe8d0a0e5c4f27ead9083c756cc2",
          "topics": [
            "0xddf252ad1be2c89b69c2b068fc378daa952ba7f163c4a11628f55a4df523b3ef",
            "0x0000000000000000000000007a250d5630b4cf539739df2c5dacb4c659f2488d",
            "0x00000000000000000000000052059ea8ddd84b5aa0dfecb8b10cd6c14d0fb6fd"
          ],
          "data": "0x0000000000000000000000000000000000000000000000000c7d713b49da0000",
          "blockHash": "0xd63797d2773b7e0f4e27a77df70f1020f9595fefbcdfa0275397d3d5e0da4760",
          "blockNumber": "0x14a3af5",
          "blockTimestamp": "0x6789e420",
          "transactionHash": "0xe2c0961fe59f91fada641ac18354469e9172abdc1c29ff10f86d336b876aedc4",
          "transactionIndex": "0x0",
          "logIndex": "0x1",
          "removed": false
        },
        {
          "address": "0x89db13aefbea93968b21666e8b2f6cb83f25aa4b",
          "topics": [
            "0xddf252ad1be2c89b69c2b068fc378daa952ba7f163c4a11628f55a4df523b3ef",
            "0x00000000000000000000000052059ea8ddd84b5aa0dfecb8b10cd6c14d0fb6fd",
            "0x00000000000000000000000041e8b90d6aef1b9b5497e92c5119c41f8d353422"
          ],
          "data": "0x0000000000000000000000000000000000000000000000000b6d5b8e78f48b75",
          "blockHash": "0xd63797d2773b7e0f4e27a77df70f1020f9595fefbcdfa0275397d3d5e0da4760",
          "blockNumber": "0x14a3af5",
          "blockTimestamp": "0x6789e420",
          "transactionHash": "0xe2c0961fe59f91fada641ac18354469e9172abdc1c29ff10f86d336b876aedc4",
          "transactionIndex": "0x0",
          "logIndex": "0x2",
          "removed": false
        },
        {
          "address": "0x52059ea8ddd84b5aa0dfecb8b10cd6c14d0fb6fd",
          "topics": [
            "0x1c411e9a96e071241c2f21f7726b17ae89e3cab4c78be50e062b03a9fffbbad1"
          ],
          "data": "0x0000000000000000000000000000000000000000000000007f59c77610f3748b0000000000000000000000000000000000000000000000009744943fd3c20000",
          "blockHash": "0xd63797d2773b7e0f4e27a77df70f1020f9595fefbcdfa0275397d3d5e0da4760",
          "blockNumber": "0x14a3af5",
          "blockTimestamp": "0x6789e420",
          "transactionHash": "0xe2c0961fe59f91fada641ac18354469e9172abdc1c29ff10f86d336b876aedc4",
          "transactionIndex": "0x0",
          "logIndex": "0x3",
          "removed": false
        },
        {
          "address": "0x52059ea8ddd84b5aa0dfecb8b10cd6c14d0fb6fd",
          "topics": [
            "0xd78ad95fa46c994b6551d0da85fc275fe613ce37657fb8d5e3d130840159d822",
            "0x0000000000000000000000007a250d5630b4cf539739df2c5dacb4c659f2488d",
            "0x00000000000000000000000041e8b90d6aef1b9b5497e92c5119c41f8d353422"
          ],
          "data": "0x00000000000000000000000000000000000000000000000000000000000000000000000000000000000000000000000000000000000000000c7d713b49da00000000000000000000000000000000000000000000000000000b6d5b8e78f48b750000000000000000000000000000000000000000000000000000000000000000",
          "blockHash": "0xd63797d2773b7e0f4e27a77df70f1020f9595fefbcdfa0275397d3d5e0da4760",
          "blockNumber": "0x14a3af5",
          "blockTimestamp": "0x6789e420",
          "transactionHash": "0xe2c0961fe59f91fada641ac18354469e9172abdc1c29ff10f86d336b876aedc4",
          "transactionIndex": "0x0",
          "logIndex": "0x4",
          "removed": false
        }
      ],
      "logsBloom": "0x00202000000000000000000080000000001000000000000000010008000200000000000000000000000000000000000002000000080000000000000080000000000000000000000000000008000000200000000000000000000000008000000000000000000008000000000000000000000000000000000000000010000000000000000000000000004000000000000000000001000000080000004000000400000000010000000000000000000000000000000000000000000000000000000000000002000000000000000000000000000000000000001000000000000020000000200000002000000100000000800000000000000000440000000000000000",
      "type": "0x2",
      "transactionHash": "0xe2c0961fe59f91fada641ac18354469e9172abdc1c29ff10f86d336b876aedc4",
      "transactionIndex": "0x0",
      "blockHash": "0xd63797d2773b7e0f4e27a77df70f1020f9595fefbcdfa0275397d3d5e0da4760",
      "blockNumber": "0x14a3af5",
      "gasUsed": "0x26ab8",
      "effectiveGasPrice": "0x4a76db16",
      "blobGasPrice": "0xb171670",
      "from": "0x41e8b90d6aef1b9b5497e92c5119c41f8d353422",
      "to": "0x7a250d5630b4cf539739df2c5dacb4c659f2488d",
      "contractAddress": null
    }
  ],
  "libraries": [],
  "pending": [],
  "returns": {},
  "timestamp": 1737734415,
  "chain": 1,
  "commit": "0d890ff"
}