{
  "transactions": [
    {
      "hash": "0x44b9350081b8b7cf06cad0f25b4dd83f42fa99d6441d4bd3b4e9e05cc65e1928",
      "transactionType": "CALL",
      "contractName": null,
      "contractAddress": "0xf3f5ccfc376f2063334c5ca210578f7dbe5f2129",
      "function": "transfer(address,uint256)",
      "arguments": [
        "0xE619Bc2bbdD6776b16cd22a573945BC7cce54991",
        "10000000000"
      ],
      "transaction": {
        "from": "0xf0bd9c08184f8a29a0c4fc1aef4a01650e356bf0",
        "to": "0xf3f5ccfc376f2063334c5ca210578f7dbe5f2129",
        "gas": "0x18b93",
        "value": "0x0",
        "input": "0xa9059cbb000000000000000000000000e619bc2bbdd6776b16cd22a573945bc7cce5499100000000000000000000000000000000000000000000000000000002540be400",
        "nonce": "0x16",
        "chainId": "0x1"
      },
      "additionalContracts": [],
      "isFixedGasLimit": false
    },
    {
      "hash": "0x9bd79eaa8edf31cb77ce17f462674206ff6939eea6ddb71c5e05da70a9d17994",
      "transactionType": "CALL",
      "contractName": null,
      "contractAddress": "0xf3f5ccfc376f2063334c5ca210578f7dbe5f2129",
      "function": "transfer(address,uint256)",
      "arguments": [
        "0xE619Bc2bbdD6776b16cd22a573945BC7cce54991",
        "10000000000"
      ],
      "transaction": {
        "from": "0xf0bd9c08184f8a29a0c4fc1aef4a01650e356bf0",
        "to": "0xf3f5ccfc376f2063334c5ca210578f7dbe5f2129",
        "gas": "0x16945",
        "value": "0x0",
        "input": "0xa9059cbb000000000000000000000000e619bc2bbdd6776b16cd22a573945bc7cce5499100000000000000000000000000000000000000000000000000000002540be400",
        "nonce": "0x17",
        "chainId": "0x1"
      },
      "additionalContracts": [],
      "isFixedGasLimit": false
    }
  ],
  "receipts": [
    {
      "status": "0x1",
      "cumulativeGasUsed": "0x1058f",
      "logs": [
        {
          "address": "0xf3f5ccfc376f2063334c5ca210578f7dbe5f2129",
          "topics": [
            "0xddf252ad1be2c89b69c2b068fc378daa952ba7f163c4a11628f55a4df523b3ef",
            "0x000000000000000000000000f0bd9c08184f8a29a0c4fc1aef4a01650e356bf0",
            "0x0000000000000000000000000000000000000000000000000000000000000000"
          ],
          "data": "0x000000000000000000000000000000000000000000000000000000003b9aca00",
          "blockHash": "0x09d8a2bd9e20b669e0879c8e7f04bf823d9b706b19890a2bf5224b872a4c485d",
          "blockNumber": "0x14a3afc",
          "blockTimestamp": "0x6789e609",
          "transactionHash": "0x44b9350081b8b7cf06cad0f25b4dd83f42fa99d6441d4bd3b4e9e05cc65e1928",
          "transactionIndex": "0x0",
          "logIndex": "0x0",
          "removed": false
        },
        {
          "address": "0xf3f5ccfc376f2063334c5ca210578f7dbe5f2129",
          "topics": [
            "0x41e2593d70b66ad637e888a39b5d932750f3fe819f61518bc37c6a632a228400",
            "0x000000000000000000000000f0bd9c08184f8a29a0c4fc1aef4a01650e356bf0"
          ],
          "data": "0x000000000000000000000000000000000000000000000000000000003b9aca00",
          "blockHash": "0x09d8a2bd9e20b669e0879c8e7f04bf823d9b706b19890a2bf5224b872a4c485d",
          "blockNumber": "0x14a3afc",
          "blockTimestamp": "0x6789e609",
          "transactionHash": "0x44b9350081b8b7cf06cad0f25b4dd83f42fa99d6441d4bd3b4e9e05cc65e1928",
          "transactionIndex": "0x0",
          "logIndex": "0x1",
          "removed": false
        },
        {
          "address": "0xf3f5ccfc376f2063334c5ca210578f7dbe5f2129",
          "topics": [
            "0xddf252ad1be2c89b69c2b068fc378daa952ba7f163c4a11628f55a4df523b3ef",
            "0x000000000000000000000000f0bd9c08184f8a29a0c4fc1aef4a01650e356bf0",
            "0x000000000000000000000000e619bc2bbdd6776b16cd22a573945bc7cce54991"
          ],
          "data": "0x00000000000000000000000000000000000000000000000000000002187119ff",
          "blockHash": "0x09d8a2bd9e20b669e0879c8e7f04bf823d9b706b19890a2bf5224b872a4c485d",
          "blockNumber": "0x14a3afc",
          "blockTimestamp": "0x6789e609",
          "transactionHash": "0x44b9350081b8b7cf06cad0f25b4dd83f42fa99d6441d4bd3b4e9e05cc65e1928",
          "transactionIndex": "0x0",
          "logIndex": "0x2",
          "removed": false
        }
      ],
      "logsBloom": "0x00000000000000000000000000000000000000000002000000000000000001000000002000000000000000000000000000000000000000000000000000000000000000000800000000000008000000000000000000100000000000000000000000000000020000000080000000000800000000000000000000000010000000000000000000000000000000000000000000000000000000000000000000000000000000000000000000000000000000000000000000000000000000000000000884000002000000000000000000000000000000000000000000000002000820000000000000000000010000000000000000000000000000000000000000000000",
      "type": "0x2",
      "transactionHash": "0x44b9350081b8b7cf06cad0f25b4dd83f42fa99d6441d4bd3b4e9e05cc65e1928",
      "transactionIndex": "0x0",
      "blockHash": "0x09d8a2bd9e20b669e0879c8e7f04bf823d9b706b19890a2bf5224b872a4c485d",
      "blockNumber": "0x14a3afc",
      "gasUsed": "0x1058f",
      "effectiveGasPrice": "0x2008b341",
      "blobGasPrice": "0x4dcd541",
      "from": "0xf0bd9c08184f8a29a0c4fc1aef4a01650e356bf0",
      "to": "0xf3f5ccfc376f2063334c5ca210578f7dbe5f2129",
      "contractAddress": null
    },
    {
      "status": "0x1",
      "cumulativeGasUsed": "0x10e7b",
      "logs": [
        {
          "address": "0xf3f5ccfc376f2063334c5ca210578f7dbe5f2129",
          "topics": [
            "0xddf252ad1be2c89b69c2b068fc378daa952ba7f163c4a11628f55a4df523b3ef",
            "0x0000000000000000000000000000000000000000000000000000000000000000",
            "0x000000000000000000000000f0bd9c08184f8a29a0c4fc1aef4a01650e356bf0"
          ],
          "data": "0x000000000000000000000000000000000000000000000000000000001dcd6500",
          "blockHash": "0x2081635d6f26bcc178ca9a26f71f51def240b9ab9c4908e8d9955b1f31d8a11d",
          "blockNumber": "0x14a3afd",
          "blockTimestamp": "0x6789e609",
          "transactionHash": "0x9bd79eaa8edf31cb77ce17f462674206ff6939eea6ddb71c5e05da70a9d17994",
          "transactionIndex": "0x0",
          "logIndex": "0x0",
          "removed": false
        },
        {
          "address": "0xf3f5ccfc376f2063334c5ca210578f7dbe5f2129",
          "topics": [
            "0x410af64dae8d122110c82ccbd1976a11e083379af79455d07098a1e5743fd380",
            "0x000000000000000000000000f0bd9c08184f8a29a0c4fc1aef4a01650e356bf0"
          ],
          "data": "0x000000000000000000000000000000000000000000000000000000001dcd6500",
          "blockHash": "0x2081635d6f26bcc178ca9a26f71f51def240b9ab9c4908e8d9955b1f31d8a11d",
          "blockNumber": "0x14a3afd",
          "blockTimestamp": "0x6789e609",
          "transactionHash": "0x9bd79eaa8edf31cb77ce17f462674206ff6939eea6ddb71c5e05da70a9d17994",
          "transactionIndex": "0x0",
          "logIndex": "0x1",
          "removed": false
        },
        {
          "address": "0xf3f5ccfc376f2063334c5ca210578f7dbe5f2129",
          "topics": [
            "0xddf252ad1be2c89b69c2b068fc378daa952ba7f163c4a11628f55a4df523b3ef",
            "0x000000000000000000000000f0bd9c08184f8a29a0c4fc1aef4a01650e356bf0",
            "0x000000000000000000000000e619bc2bbdd6776b16cd22a573945bc7cce54991"
          ],
          "data": "0x00000000000000000000000000000000000000000000000000000002540be3ff",
          "blockHash": "0x2081635d6f26bcc178ca9a26f71f51def240b9ab9c4908e8d9955b1f31d8a11d",
          "blockNumber": "0x14a3afd",
          "blockTimestamp": "0x6789e609",
          "transactionHash": "0x9bd79eaa8edf31cb77ce17f462674206ff6939eea6ddb71c5e05da70a9d17994",
          "transactionIndex": "0x0",
          "logIndex": "0x2",
          "removed": false
        }
      ],
      "logsBloom": "0x00000000000000000000000000000000000000000000000000000000000001000004002000000000000000000000000000000000000000000000000000000000000000000800000000000008000000000000000000000000000000000000000000004000020000000080000000000800000000000000000000400010000000000000000000000000000000000000000000000000000000000000000000000000000000000000000000000000000000000000000000000000000000000000000884000002000000000000000000000000000000000000000000000000000820000000000000000000010000000000000000000000000000000000000000000000",
      "type": "0x2",
      "transactionHash": "0x9bd79eaa8edf31cb77ce17f462674206ff6939eea6ddb71c5e05da70a9d17994",
      "transactionIndex": "0x0",
      "blockHash": "0x2081635d6f26bcc178ca9a26f71f51def240b9ab9c4908e8d9955b1f31d8a11d",
      "blockNumber": "0x14a3afd",
      "gasUsed": "0x10e7b",
      "effectiveGasPrice": "0x1c6b215d",
      "blobGasPrice": "0x45284aa",
      "from": "0xf0bd9c08184f8a29a0c4fc1aef4a01650e356bf0",
      "to": "0xf3f5ccfc376f2063334c5ca210578f7dbe5f2129",
      "contractAddress": null
    }
  ],
  "libraries": [],
  "pending": [],
  "returns": {},
  "timestamp": 1737736088,
  "chain": 1,
  "commit": "0d890ff"
}