{
  "transactions": [
    {
      "hash": "0x124b1a52c7e807d06ef535ce1030481efd419b34acfc4beec8ae338ef90cbf49",
      "transactionType": "CALL",
      "contractName": null,
      "contractAddress": "0x7a250d5630b4cf539739df2c5dacb4c659f2488d",
      "function": "swapExactETHForTokens(uint256,address[],address,uint256)",
      "arguments": [
        "0",
        "[0xC02aaA39b223FE8D0A0e5C4F27eAD9083C756Cc2, 0xf3f5ccfc376f2063334C5ca210578f7dBe5F2129]",
        "0xF0Bd9c08184f8a29a0c4Fc1aeF4a01650e356Bf0",
        "1737095854"
      ],
      "transaction": {
        "from": "0xf0bd9c08184f8a29a0c4fc1aef4a01650e356bf0",
        "to": "0x7a250d5630b4cf539739df2c5dacb4c659f2488d",
        "gas": "0x38879",
        "value": "0xc7d713b49da0000",
        "input": "0x7ff36ab500000000000000000000000000000000000000000000000000000000000000000000000000000000000000000000000000000000000000000000000000000080000000000000000000000000f0bd9c08184f8a29a0c4fc1aef4a01650e356bf0000000000000000000000000000000000000000000000000000000006789faae0000000000000000000000000000000000000000000000000000000000000002000000000000000000000000c02aaa39b223fe8d0a0e5c4f27ead9083c756cc2000000000000000000000000f3f5ccfc376f2063334c5ca210578f7dbe5f2129",
        "nonce": "0x1",
        "chainId": "0x1"
      },
      "additionalContracts": [],
      "isFixedGasLimit": false
    }
  ],
  "receipts": [
    {
      "status": "0x1",
      "cumulativeGasUsed": "0x26a72",
      "logs": [
        {
          "address": "0xc02aaa39b223fe8d0a0e5c4f27ead9083c756cc2",
          "topics": [
            "0xe1fffcc4923d04b559f4d29a8bfc6cda04eb5b0d3c460751c2402c5c5cc9109c",
            "0x0000000000000000000000007a250d5630b4cf539739df2c5dacb4c659f2488d"
          ],
          "data": "0x0000000000000000000000000000000000000000000000000c7d713b49da0000",
          "blockHash": "0xef94acf8007ac2772fb6af562fc152c7d88a81c6561e353d6576442f506f52de",
          "blockNumber": "0x14a3aef",
          "blockTimestamp": "0x6789e355",
          "transactionHash": "0x124b1a52c7e807d06ef535ce1030481efd419b34acfc4beec8ae338ef90cbf49",
          "transactionIndex": "0x0",
          "logIndex": "0x0",
          "removed": false
        },
        {
          "address": "0xc02aaa39b223fe8d0a0e5c4f27ead9083c756cc2",
          "topics": [
            "0xddf252ad1be2c89b69c2b068fc378daa952ba7f163c4a11628f55a4df523b3ef",
            "0x0000000000000000000000007a250d5630b4cf539739df2c5dacb4c659f2488d",
            "0x000000000000000000000000d30ac96c80783ab9c89caa0a4dcdd24f232d7635"
          ],
          "data": "0x0000000000000000000000000000000000000000000000000c7d713b49da0000",
          "blockHash": "0xef94acf8007ac2772fb6af562fc152c7d88a81c6561e353d6576442f506f52de",
          "blockNumber": "0x14a3aef",
          "blockTimestamp": "0x6789e355",
          "transactionHash": "0x124b1a52c7e807d06ef535ce1030481efd419b34acfc4beec8ae338ef90cbf49",
          "transactionIndex": "0x0",
          "logIndex": "0x1",
          "removed": false
        },
        {
          "address": "0xf3f5ccfc376f2063334c5ca210578f7dbe5f2129",
          "topics": [
            "0xddf252ad1be2c89b69c2b068fc378daa952ba7f163c4a11628f55a4df523b3ef",
            "0x000000000000000000000000d30ac96c80783ab9c89caa0a4dcdd24f232d7635",
            "0x000000000000000000000000f0bd9c08184f8a29a0c4fc1aef4a01650e356bf0"
          ],
          "data": "0x0000000000000000000000000000000000000000000000000b6d5b8e78f48b75",
          "blockHash": "0xef94acf8007ac2772fb6af562fc152c7d88a81c6561e353d6576442f506f52de",
          "blockNumber": "0x14a3aef",
          "blockTimestamp": "0x6789e355",
          "transactionHash": "0x124b1a52c7e807d06ef535ce1030481efd419b34acfc4beec8ae338ef90cbf49",
          "transactionIndex": "0x0",
          "logIndex": "0x2",
          "removed": false
        },
        {
          "address": "0xd30ac96c80783ab9c89caa0a4dcdd24f232d7635",
          "topics": [
            "0x1c411e9a96e071241c2f21f7726b17ae89e3cab4c78be50e062b03a9fffbbad1"
          ],
          "data": "0x0000000000000000000000000000000000000000000000009744943fd3c200000000000000000000000000000000000000000000000000007f59c77610f3748b",
          "blockHash": "0xef94acf8007ac2772fb6af562fc152c7d88a81c6561e353d6576442f506f52de",
          "blockNumber": "0x14a3aef",
          "blockTimestamp": "0x6789e355",
          "transactionHash": "0x124b1a52c7e807d06ef535ce1030481efd419b34acfc4beec8ae338ef90cbf49",
          "transactionIndex": "0x0",
          "logIndex": "0x3",
          "removed": false
        },
        {
          "address": "0xd30ac96c80783ab9c89caa0a4dcdd24f232d7635",
          "topics": [
            "0xd78ad95fa46c994b6551d0da85fc275fe613ce37657fb8d5e3d130840159d822",
            "0x0000000000000000000000007a250d5630b4cf539739df2c5dacb4c659f2488d",
            "0x000000000000000000000000f0bd9c08184f8a29a0c4fc1aef4a01650e356bf0"
          ],
          "data": "0x0000000000000000000000000000000000000000000000000c7d713b49da0000000000000000000000000000000000000000000000000000000000000000000000000000000000000000000000000000000000000000000000000000000000000000000000000000000000000000000000000000000000000b6d5b8e78f48b75",
          "blockHash": "0xef94acf8007ac2772fb6af562fc152c7d88a81c6561e353d6576442f506f52de",
          "blockNumber": "0x14a3aef",
          "blockTimestamp": "0x6789e355",
          "transactionHash": "0x124b1a52c7e807d06ef535ce1030481efd419b34acfc4beec8ae338ef90cbf49",
          "transactionIndex": "0x0",
          "logIndex": "0x4",
          "removed": false
        }
      ],
      "logsBloom": "0x002000000000000000000000800000000000000000000000000100000000010000000000000000000000000000000000020000000800000000000000000000000000000008000000000000080000002000000000000800000000000080001000000000000000000000000000000000000000000000000000000000100000000000000000000000000040000080000000000000010000000c0000004000000000000000000000100000100000000000000000000000000000000000000000000804000002000000000000000000000000000000000000001000000000000820000000200000000000010000000000000000000000000000400000000000000000",
      "type": "0x2",
      "transactionHash": "0x124b1a52c7e807d06ef535ce1030481efd419b34acfc4beec8ae338ef90cbf49",
      "transactionIndex": "0x0",
      "blockHash": "0xef94acf8007ac2772fb6af562fc152c7d88a81c6561e353d6576442f506f52de",
      "blockNumber": "0x14a3aef",
      "gasUsed": "0x26a72",
      "effectiveGasPrice": "0x9d82fe55",
      "blobGasPrice": "0x167ba504",
      "from": "0xf0bd9c08184f8a29a0c4fc1aef4a01650e356bf0",
      "to": "0x7a250d5630b4cf539739df2c5dacb4c659f2488d",
      "contractAddress": null
    }
  ],
  "libraries": [],
  "pending": [],
  "returns": {},
  "timestamp": 1737735396,
  "chain": 1,
  "commit": "0d890ff"
}