{
  "transactions": [
    {
      "hash": "0x2b5600b1f025f0fefda3c4f3063c2aeee8308d68729ebee99ad4e7a1fb3d71d8",
      "transactionType": "CALL",
      "contractName": null,
      "contractAddress": "0xaf5259c0d8ddadbaa62305444515176f3f0b4baa",
      "function": "claimLPT()",
      "arguments": [],
      "transaction": {
        "from": "0x80a5ac833b064de5d947041a11fcc4ab0e5f1f89",
        "to": "0xaf5259c0d8ddadbaa62305444515176f3f0b4baa",
        "value": "0x0",
        "input": "0x61bbd9e5",
        "nonce": "0x0",
        "chainId": "0xa4b1"
      },
      "additionalContracts": [],
      "isFixedGasLimit": false
    },
    {
      "hash": "0xcd76301af8681cfe4e45a1123efa8a1c680a447a082f6df1cd7be9a44295ba69",
      "transactionType": "CALL",
      "contractName": null,
      "contractAddress": "0xdd6f56dcc28d3f5f27084381fe8df634985cc39f",
      "function": "initializeRound()",
      "arguments": [],
      "transaction": {
        "from": "0x80a5ac833b064de5d947041a11fcc4ab0e5f1f89",
        "to": "0xdd6f56dcc28d3f5f27084381fe8df634985cc39f",
        "value": "0x0",
        "input": "0xd4807fb2",
        "nonce": "0x1",
        "chainId": "0xa4b1"
      },
      "additionalContracts": [],
      "isFixedGasLimit": false
    },
    {
      "hash": "0xd30093b908b5765f3bacbf97e2b6ffde86e0113ee101423cedee39206e3ad40d",
      "transactionType": "CALL",
      "contractName": null,
      "contractAddress": "0x289ba1701c2f088cf0faf8b3705246331cb8a839",
      "function": "approve(address,uint256)",
      "arguments": [
        "0x35Bcf3c30594191d53231E4FF333E8A770453e40",
        "115792089237316195423570985008687907853269984665640564039457584007913129639935"
      ],
      "transaction": {
        "from": "0x80a5ac833b064de5d947041a11fcc4ab0e5f1f89",
        "to": "0x289ba1701c2f088cf0faf8b3705246331cb8a839",
        "value": "0x0",
        "input": "0x095ea7b300000000000000000000000035bcf3c30594191d53231e4ff333e8a770453e40ffffffffffffffffffffffffffffffffffffffffffffffffffffffffffffffff",
        "nonce": "0x2",
        "chainId": "0xa4b1"
      },
      "additionalContracts": [],
      "isFixedGasLimit": false
    }
  ],
  "receipts": [
    {
      "status": "0x1",
      "cumulativeGasUsed": "0xc34f",
      "logs": [
        {
          "address": "0x289ba1701c2f088cf0faf8b3705246331cb8a839",
          "topics": [
            "0xddf252ad1be2c89b69c2b068fc378daa952ba7f163c4a11628f55a4df523b3ef",
            "0x000000000000000000000000af5259c0d8ddadbaa62305444515176f3f0b4baa",
            "0x00000000000000000000000080a5ac833b064de5d947041a11fcc4ab0e5f1f89"
          ],
          "data": "0x00000000000000000000000000000000000000000000010f0cf064dd59200000",
          "blockHash": "0x27d6c9031150fd4db5f2fd9c6cef9cdac99f59a0f9bd3b9a9a767cc20618c58a",
          "blockNumber": "0xfec9a6b",
          "blockTimestamp": "0x671a41c4",
          "transactionHash": "0x2b5600b1f025f0fefda3c4f3063c2aeee8308d68729ebee99ad4e7a1fb3d71d8",
          "transactionIndex": "0x0",
          "logIndex": "0x0",
          "removed": false
        }
      ],
      "logsBloom": "0x80000000000000402000000000000000000000000040000000000000000000000000000000000000000000000000000400000000000000000000000000000000000000000000020000000008000000000000000000000000000000000000000000000000000000000000000000000000000000000000000000000010000000000000000000000000000000000000000000000000000000000000000000000000000000000000000000000000000000000000000000000000000000000000000000000002000000000000000000000000000000000000000000000000000000000000000000000000001000000001080000000000000000000000000000000000",
      "type": "0x2",
      "transactionHash": "0x2b5600b1f025f0fefda3c4f3063c2aeee8308d68729ebee99ad4e7a1fb3d71d8",
      "transactionIndex": "0x0",
      "blockHash": "0x27d6c9031150fd4db5f2fd9c6cef9cdac99f59a0f9bd3b9a9a767cc20618c58a",
      "blockNumber": "0xfec9a6b",
      "gasUsed": "0xc34f",
      "effectiveGasPrice": "0x6638d5",
      "blobGasPrice": "0x1",
      "from": "0x80a5ac833b064de5d947041a11fcc4ab0e5f1f89",
      "to": "0xaf5259c0d8ddadbaa62305444515176f3f0b4baa",
      "contractAddress": null
    },
    {
      "status": "0x1",
      "cumulativeGasUsed": "0x3a466",
      "logs": [
        {
          "address": "0xc20de37170b45774e6cd3d2304017fc962f27252",
          "topics": [
            "0x39567a366345edf17f50c1967a31b597745186c4632f34c4f8ebe06b6890784d"
          ],
          "data": "0x00000000000000000000000000000000000000000000042799b519c92ff3fec90000000000000000000000000000000000000000000000000000000000087604",
          "blockHash": "0x102e1433fe58afa376e0f4787d2dadde25320835e9ecb102d0e84dfb0a82afc9",
          "blockNumber": "0xfec9a6c",
          "blockTimestamp": "0x671a41c6",
          "transactionHash": "0xcd76301af8681cfe4e45a1123efa8a1c680a447a082f6df1cd7be9a44295ba69",
          "transactionIndex": "0x0",
          "logIndex": "0x0",
          "removed": false
        },
        {
          "address": "0xdd6f56dcc28d3f5f27084381fe8df634985cc39f",
          "topics": [
            "0x22f2fc17c5daf07db2379b3a03a8ef20a183f761097a58fce219c8a14619e786",
            "0x000000000000000000000000000000000000000000000000000000000fec9a68"
          ],
          "data": "0x27d6c9031150fd4db5f2fd9c6cef9cdac99f59a0f9bd3b9a9a767cc20618c58a",
          "blockHash": "0x102e1433fe58afa376e0f4787d2dadde25320835e9ecb102d0e84dfb0a82afc9",
          "blockNumber": "0xfec9a6c",
          "blockTimestamp": "0x671a41c6",
          "transactionHash": "0xcd76301af8681cfe4e45a1123efa8a1c680a447a082f6df1cd7be9a44295ba69",
          "transactionIndex": "0x0",
          "logIndex": "0x1",
          "removed": false
        }
      ],
      "logsBloom": "0x00000000000000800000000000000200000000000000000800008004000000000000000000000000000080000000000000000000000000000000000000000000000000000000000000000000000000000000000000000000000000000000000000000000001000000000000000000000000000000000000000000000000000000000000000000000000000000000000000002000000000000000000000000000000000000000000000000002080000000200000000000000000000000000000000000800000008000000000000000000000000000000000000000000000000000000000000000000000000000000000000000000000000000808000000000000",
      "type": "0x2",
      "transactionHash": "0xcd76301af8681cfe4e45a1123efa8a1c680a447a082f6df1cd7be9a44295ba69",
      "transactionIndex": "0x0",
      "blockHash": "0x102e1433fe58afa376e0f4787d2dadde25320835e9ecb102d0e84dfb0a82afc9",
      "blockNumber": "0xfec9a6c",
      "gasUsed": "0x3a466",
      "effectiveGasPrice": "0x5971bb",
      "blobGasPrice": "0x1",
      "from": "0x80a5ac833b064de5d947041a11fcc4ab0e5f1f89",
      "to": "0xdd6f56dcc28d3f5f27084381fe8df634985cc39f",
      "contractAddress": null
    },
    {
      "status": "0x1",
      "cumulativeGasUsed": "0xb886",
      "logs": [
        {
          "address": "0x289ba1701c2f088cf0faf8b3705246331cb8a839",
          "topics": [
            "0x8c5be1e5ebec7d5bd14f71427d1e84f3dd0314c0f7b2291e5b200ac8c7c3b925",
            "0x00000000000000000000000080a5ac833b064de5d947041a11fcc4ab0e5f1f89",
            "0x00000000000000000000000035bcf3c30594191d53231e4ff333e8a770453e40"
          ],
          "data": "0xffffffffffffffffffffffffffffffffffffffffffffffffffffffffffffffff",
          "blockHash": "0xe960e3293dd5646a3b695febf46313897631758645b9babc463fec899520708b",
          "blockNumber": "0xfec9a6d",
          "blockTimestamp": "0x671a41c7",
          "transactionHash": "0xd30093b908b5765f3bacbf97e2b6ffde86e0113ee101423cedee39206e3ad40d",
          "transactionIndex": "0x0",
          "logIndex": "0x0",
          "removed": false
        }
      ],
      "logsBloom": "0x80000000000000400000000000000000000000000040000000000000000000000000000000000000000000000000000000000000000000000000000000200000002000000000020000000000000000000000000000000000000000000000000000000000000000000000000000000000000000000000000000000000000000000000000000000000000000000000000000000000000000000000000000000000020000000400000000000000000000000000000000000000000000000000000080000000000000000000000000000000000000000000000000000000000000000010000000000000001000000000080000000000000000000000000000000000",
      "type": "0x2",
      "transactionHash": "0xd30093b908b5765f3bacbf97e2b6ffde86e0113ee101423cedee39206e3ad40d",
      "transactionIndex": "0x0",
      "blockHash": "0xe960e3293dd5646a3b695febf46313897631758645b9babc463fec899520708b",
      "blockNumber": "0xfec9a6d",
      "gasUsed": "0xb886",
      "effectiveGasPrice": "0x4e4384",
      "blobGasPrice": "0x1",
      "from": "0x80a5ac833b064de5d947041a11fcc4ab0e5f1f89",
      "to": "0x289ba1701c2f088cf0faf8b3705246331cb8a839",
      "contractAddress": null
    }
  ],
  "libraries": [],
  "pending": [],
  "returns": {},
  "timestamp": 1737888867,
  "chain": 42161,
  "commit": "e0df9c3"
}