{
  "transactions": [
    {
      "hash": "0x73c6e182123cd68249ad568fcc6040a5fcf48214a5c4b4b044461b177260cf38",
      "transactionType": "CALL",
      "contractName": null,
      "contractAddress": "0x35bcf3c30594191d53231e4ff333e8a770453e40",
      "function": "bond(uint256,address)",
      "arguments": [
        "5000000000000000000000",
        "0x80a5ac833b064De5D947041a11Fcc4AB0E5f1f89"
      ],
      "transaction": {
        "from": "0x80a5ac833b064de5d947041a11fcc4ab0e5f1f89",
        "to": "0x35bcf3c30594191d53231e4ff333e8a770453e40",
        "value": "0x0",
        "input": "0xb78d27dc00000000000000000000000000000000000000000000010f0cf064dd5920000000000000000000000000000080a5ac833b064de5d947041a11fcc4ab0e5f1f89",
        "nonce": "0x3",
        "chainId": "0xa4b1"
      },
      "additionalContracts": [],
      "isFixedGasLimit": false
    },
    {
      "hash": "0x04185eea923a333bd43353cee711cea7b2d1b64fec16a77f2d2a6268675cda21",
      "transactionType": "CALL",
      "contractName": null,
      "contractAddress": "0x35bcf3c30594191d53231e4ff333e8a770453e40",
      "function": "transcoder(uint256,uint256)",
      "arguments": [
        "1000000",
        "1000000"
      ],
      "transaction": {
        "from": "0x80a5ac833b064de5d947041a11fcc4ab0e5f1f89",
        "to": "0x35bcf3c30594191d53231e4ff333e8a770453e40",
        "value": "0x0",
        "input": "0x43d3461a00000000000000000000000000000000000000000000000000000000000f424000000000000000000000000000000000000000000000000000000000000f4240",
        "nonce": "0x4",
        "chainId": "0xa4b1"
      },
      "additionalContracts": [],
      "isFixedGasLimit": false
    }
  ],
  "receipts": [
    {
      "status": "0x1",
      "cumulativeGasUsed": "0x1003b5",
      "logs": [
        {
          "address": "0x35bcf3c30594191d53231e4ff333e8a770453e40",
          "topics": [
            "0xd7eab0765b772ea6ea859d5633baf737502198012e930f257f90013d9b211094",
            "0x0000000000000000000000000000000000000000000000000000000000000000",
            "0x00000000000000000000000080a5ac833b064de5d947041a11fcc4ab0e5f1f89"
          ],
          "data": "0x000000000000000000000000000000000000000000000000000000000000000000000000000000000000000000000000000000000000000000000000000000000000000000000000000000000000000000000000000000000000000000000001000000000000000000000000000000000000000000000000000000000fec9a68",
          "blockHash": "0xab84498931c4442daeaef4e688bba240ec9d8f2c743099697f7e436edb3b99a7",
          "blockNumber": "0xfec9a6e",
          "blockTimestamp": "0x671a4238",
          "transactionHash": "0x73c6e182123cd68249ad568fcc6040a5fcf48214a5c4b4b044461b177260cf38",
          "transactionIndex": "0x0",
          "logIndex": "0x0",
          "removed": false
        },
        {
          "address": "0x35bcf3c30594191d53231e4ff333e8a770453e40",
          "topics": [
            "0xfee3e693fc72d0a0a673805f3e606c551f4c677b9072444b90dd2d0406bc995c",
            "0x0000000000000000000000002cc8aec211fdc372c0f7e4d1add1675733381328"
          ],
          "data": "0x000000000000000000000000000000000000000000000000000000000fec9a69",
          "blockHash": "0xab84498931c4442daeaef4e688bba240ec9d8f2c743099697f7e436edb3b99a7",
          "blockNumber": "0xfec9a6e",
          "blockTimestamp": "0x671a4238",
          "transactionHash": "0x73c6e182123cd68249ad568fcc6040a5fcf48214a5c4b4b044461b177260cf38",
          "transactionIndex": "0x0",
          "logIndex": "0x1",
          "removed": false
        },
        {
          "address": "0x35bcf3c30594191d53231e4ff333e8a770453e40",
          "topics": [
            "0x65d72d782835d64c3287844a829608d5abdc7e864cc9affe96d910ab3db665e9",
            "0x00000000000000000000000080a5ac833b064de5d947041a11fcc4ab0e5f1f89"
          ],
          "data": "0x000000000000000000000000000000000000000000000000000000000fec9a69",
          "blockHash": "0xab84498931c4442daeaef4e688bba240ec9d8f2c743099697f7e436edb3b99a7",
          "blockNumber": "0xfec9a6e",
          "blockTimestamp": "0x671a4238",
          "transactionHash": "0x73c6e182123cd68249ad568fcc6040a5fcf48214a5c4b4b044461b177260cf38",
          "transactionIndex": "0x0",
          "logIndex": "0x2",
          "removed": false
        },
        {
          "address": "0x289ba1701c2f088cf0faf8b3705246331cb8a839",
          "topics": [
            "0xddf252ad1be2c89b69c2b068fc378daa952ba7f163c4a11628f55a4df523b3ef",
            "0x00000000000000000000000080a5ac833b064de5d947041a11fcc4ab0e5f1f89",
            "0x000000000000000000000000c20de37170b45774e6cd3d2304017fc962f27252"
          ],
          "data": "0x00000000000000000000000000000000000000000000010f0cf064dd59200000",
          "blockHash": "0xab84498931c4442daeaef4e688bba240ec9d8f2c743099697f7e436edb3b99a7",
          "blockNumber": "0xfec9a6e",
          "blockTimestamp": "0x671a4238",
          "transactionHash": "0x73c6e182123cd68249ad568fcc6040a5fcf48214a5c4b4b044461b177260cf38",
          "transactionIndex": "0x0",
          "logIndex": "0x3",
          "removed": false
        },
        {
          "address": "0x289ba1701c2f088cf0faf8b3705246331cb8a839",
          "topics": [
            "0x8c5be1e5ebec7d5bd14f71427d1e84f3dd0314c0f7b2291e5b200ac8c7c3b925",
            "0x00000000000000000000000080a5ac833b064de5d947041a11fcc4ab0e5f1f89",
            "0x00000000000000000000000035bcf3c30594191d53231e4ff333e8a770453e40"
          ],
          "data": "0xfffffffffffffffffffffffffffffffffffffffffffffef0f30f9b22a6dfffff",
          "blockHash": "0xab84498931c4442daeaef4e688bba240ec9d8f2c743099697f7e436edb3b99a7",
          "blockNumber": "0xfec9a6e",
          "blockTimestamp": "0x671a4238",
          "transactionHash": "0x73c6e182123cd68249ad568fcc6040a5fcf48214a5c4b4b044461b177260cf38",
          "transactionIndex": "0x0",
          "logIndex": "0x4",
          "removed": false
        },
        {
          "address": "0x35bcf3c30594191d53231e4ff333e8a770453e40",
          "topics": [
            "0xe5917769f276ddca9f2ee7c6b0b33e1d1e1b61008010ce622c632dd20d168a23",
            "0x00000000000000000000000080a5ac833b064de5d947041a11fcc4ab0e5f1f89",
            "0x0000000000000000000000000000000000000000000000000000000000000000",
            "0x00000000000000000000000080a5ac833b064de5d947041a11fcc4ab0e5f1f89"
          ],
          "data": "0x00000000000000000000000000000000000000000000010f0cf064dd5920000000000000000000000000000000000000000000000000010f0cf064dd59200000",
          "blockHash": "0xab84498931c4442daeaef4e688bba240ec9d8f2c743099697f7e436edb3b99a7",
          "blockNumber": "0xfec9a6e",
          "blockTimestamp": "0x671a4238",
          "transactionHash": "0x73c6e182123cd68249ad568fcc6040a5fcf48214a5c4b4b044461b177260cf38",
          "transactionIndex": "0x0",
          "logIndex": "0x5",
          "removed": false
        },
        {
          "address": "0x0b9c254837e72ebe9fe04960c43b69782e68169a",
          "topics": [
            "0x3134e8a2e6d97e929a7e54011ea5485d7d196dd5f0ba4d4ef95803e8e3fc257f",
            "0x00000000000000000000000080a5ac833b064de5d947041a11fcc4ab0e5f1f89",
            "0x0000000000000000000000000000000000000000000000000000000000000000",
            "0x00000000000000000000000080a5ac833b064de5d947041a11fcc4ab0e5f1f89"
          ],
          "data": "0x",
          "blockHash": "0xab84498931c4442daeaef4e688bba240ec9d8f2c743099697f7e436edb3b99a7",
          "blockNumber": "0xfec9a6e",
          "blockTimestamp": "0x671a4238",
          "transactionHash": "0x73c6e182123cd68249ad568fcc6040a5fcf48214a5c4b4b044461b177260cf38",
          "transactionIndex": "0x0",
          "logIndex": "0x6",
          "removed": false
        },
        {
          "address": "0x0b9c254837e72ebe9fe04960c43b69782e68169a",
          "topics": [
            "0xdec2bacdd2f05b59de34da9b523dff8be42e5e38e818c82fdb0bae774387a724",
            "0x00000000000000000000000080a5ac833b064de5d947041a11fcc4ab0e5f1f89"
          ],
          "data": "0x000000000000000000000000000000000000000000000000000000000000000000000000000000000000000000000000000000000000010f0cf064dd59200000",
          "blockHash": "0xab84498931c4442daeaef4e688bba240ec9d8f2c743099697f7e436edb3b99a7",
          "blockNumber": "0xfec9a6e",
          "blockTimestamp": "0x671a4238",
          "transactionHash": "0x73c6e182123cd68249ad568fcc6040a5fcf48214a5c4b4b044461b177260cf38",
          "transactionIndex": "0x0",
          "logIndex": "0x7",
          "removed": false
        },
        {
          "address": "0x0b9c254837e72ebe9fe04960c43b69782e68169a",
          "topics": [
            "0x1232f54fc2d34f79dc63b496ab493d834655fc2ea6d945ca547e9be242fd2b72",
            "0x00000000000000000000000080a5ac833b064de5d947041a11fcc4ab0e5f1f89"
          ],
          "data": "0x0000000000000000000000000000000000000000000000000000000000000000000000000000000000000000000000000000000000000000000000000000000000000000000000000000000000000000000000000000010f0cf064dd59200000000000000000000000000000000000000000000000000000000000000fec9a68",
          "blockHash": "0xab84498931c4442daeaef4e688bba240ec9d8f2c743099697f7e436edb3b99a7",
          "blockNumber": "0xfec9a6e",
          "blockTimestamp": "0x671a4238",
          "transactionHash": "0x73c6e182123cd68249ad568fcc6040a5fcf48214a5c4b4b044461b177260cf38",
          "transactionIndex": "0x0",
          "logIndex": "0x8",
          "removed": false
        }
      ],
      "logsBloom": "0x80000000000000400000000000000000000020000040000000000000000000000000000000000200008011000000000001020000000000004000000000200000002000000000020000000008000000000000800000000040000000000080000000000040020000000040000400000800000000000004000000000012000000000400000000000040000000000000800000000000000000000000000000000000060040020400000000000000000000000000000000000040000000000000000080400002000000000000002800000000000000000000000000200000000020000010200000000020005000000000080000000000010000080000000000000400",
      "type": "0x2",
      "transactionHash": "0x73c6e182123cd68249ad568fcc6040a5fcf48214a5c4b4b044461b177260cf38",
      "transactionIndex": "0x0",
      "blockHash": "0xab84498931c4442daeaef4e688bba240ec9d8f2c743099697f7e436edb3b99a7",
      "blockNumber": "0xfec9a6e",
      "gasUsed": "0x1003b5",
      "effectiveGasPrice": "0x447b14",
      "blobGasPrice": "0x1",
      "from": "0x80a5ac833b064de5d947041a11fcc4ab0e5f1f89",
      "to": "0x35bcf3c30594191d53231e4ff333e8a770453e40",
      "contractAddress": null
    },
    {
      "status": "0x1",
      "cumulativeGasUsed": "0x21b0c",
      "logs": [
        {
          "address": "0x35bcf3c30594191d53231e4ff333e8a770453e40",
          "topics": [
            "0x7346854431dbb3eb8e373c604abf89e90f4865b8447e1e2834d7b3e4677bf544",
            "0x00000000000000000000000080a5ac833b064de5d947041a11fcc4ab0e5f1f89"
          ],
          "data": "0x00000000000000000000000000000000000000000000000000000000000f424000000000000000000000000000000000000000000000000000000000000f4240",
          "blockHash": "0x48c931e602baa6426fa2e98f3b7f1a6d594d1513005f96aa1b9600171261996c",
          "blockNumber": "0xfec9a6f",
          "blockTimestamp": "0x671a423a",
          "transactionHash": "0x04185eea923a333bd43353cee711cea7b2d1b64fec16a77f2d2a6268675cda21",
          "transactionIndex": "0x0",
          "logIndex": "0x0",
          "removed": false
        }
      ],
      "logsBloom": "0x00000000000000400000000000000000000000000040000000000000000000000000000000000000000000000000000000000000000000004000000000000000000000000000000000000000000000000000000000000000000000040000000000000040000000000000000000000000000000000000000000000200000000000000000000000040000000000000000000000000000000000000000000000000000000020000000000000000000000000000000000000000000000000000000000000000000000000000000000000000000000000000000000000000000000000000000000000000000000000000080000000000000000000000000000000000",
      "type": "0x2",
      "transactionHash": "0x04185eea923a333bd43353cee711cea7b2d1b64fec16a77f2d2a6268675cda21",
      "transactionIndex": "0x0",
      "blockHash": "0x48c931e602baa6426fa2e98f3b7f1a6d594d1513005f96aa1b9600171261996c",
      "blockNumber": "0xfec9a6f",
      "gasUsed": "0x21b0c",
      "effectiveGasPrice": "0x3bebb2",
      "blobGasPrice": "0x1",
      "from": "0x80a5ac833b064de5d947041a11fcc4ab0e5f1f89",
      "to": "0x35bcf3c30594191d53231e4ff333e8a770453e40",
      "contractAddress": null
    }
  ],
  "libraries": [],
  "pending": [],
  "returns": {},
  "timestamp": 1737888981,
  "chain": 42161,
  "commit": "e0df9c3"
}