{
  "transactions": [
    {
      "hash": "0x0115b59385b993cb01eba415a253c4d7eb17a89a4052188c33eeaa8dcdfba7de",
      "transactionType": "CALL",
      "contractName": null,
      "contractAddress": "0x410355127f7cd3dc48d876913816a1e5df1c44d2",
      "function": "execute((address,address,uint256,uint256,uint48,bytes,bytes))",
      "arguments": [
        "(0xcf4F1999197400fF25445FFbC22CEA917758144d, 0x786BeE5292B12AA79725cb66f0CBfb7E10A6CAc9, 0, 1000000, 281474976710655, 0x890d6908, 0x2cc3b0249f50124ce9fb5b0e58a277445f2da94bca01eb93b25c667979068dca3ee5e263ac62fe6ffecb844ca47bcba0161ee352f0896f31afef3b32c373deed1b)"
      ],
      "transaction": {
        "from": "0xcf4f1999197400ff25445ffbc22cea917758144d",
        "to": "0x410355127f7cd3dc48d876913816a1e5df1c44d2",
        "gas": "0x83e78",
        "value": "0x0",
        "input": "0xdf905caf0000000000000000000000000000000000000000000000000000000000000020000000000000000000000000cf4f1999197400ff25445ffbc22cea917758144d000000000000000000000000786bee5292b12aa79725cb66f0cbfb7e10a6cac9000000000000000000000000000000000000000000000000000000000000000000000000000000000000000000000000000000000000000000000000000f42400000000000000000000000000000000000000000000000000000ffffffffffff00000000000000000000000000000000000000000000000000000000000000e000000000000000000000000000000000000000000000000000000000000001200000000000000000000000000000000000000000000000000000000000000004890d69080000000000000000000000000000000000000000000000000000000000000000000000000000000000000000000000000000000000000000000000412cc3b0249f50124ce9fb5b0e58a277445f2da94bca01eb93b25c667979068dca3ee5e263ac62fe6ffecb844ca47bcba0161ee352f0896f31afef3b32c373deed1b00000000000000000000000000000000000000000000000000000000000000",
        "nonce": "0x13",
        "chainId": "0x92"
      },
      "additionalContracts": [],
      "isFixedGasLimit": false
    }
  ],
  "receipts": [
    {
      "status": "0x1",
      "cumulativeGasUsed": "0x1bec41",
      "logs": [
        {
          "address": "0xec83a9d2a4d1fbd20b062297a1996f17803ee4a4",
          "topics": [
            "0x842fb24a83793558587a3dab2be7674da4a51d09c5542d6dd354e5d0ea70813c",
            "0x000000000000000000000000cf4f1999197400ff25445ffbc22cea917758144d"
          ],
          "data": "0x00000000000000000000000000000000000000000000000000000000000000010000000000000000000000000000000000000000000000000000000000000001",
          "blockHash": "0xc8b92f054b1d6bc17f484011747e85d3e0ea1c2f1766348188160ac2f1930b65",
          "blockNumber": "0x17c8464",
          "transactionHash": "0x0115b59385b993cb01eba415a253c4d7eb17a89a4052188c33eeaa8dcdfba7de",
          "transactionIndex": "0x3",
          "logIndex": "0x10",
          "removed": false
        }
      ],
      "logsBloom": "0x00002000000800000000000000000000000000000084000000000000000000000000000000000000000000000000000000000000000000000000000000000000000000000000000000000000000000000000000000000000000000000000000000000000000000000002000000000000000000000000000000000000000000000004000400000000000000000000000000000000000000000000000000000000000000000000000000000000000000000000000000000000000000000000000000000000000000000080000000000000000000000000000000000000000000000000000000000400000000000000000000000000000000000000000000000000",
      "type": "0x2",
      "transactionHash": "0x0115b59385b993cb01eba415a253c4d7eb17a89a4052188c33eeaa8dcdfba7de",
      "transactionIndex": "0x3",
      "blockHash": "0xc8b92f054b1d6bc17f484011747e85d3e0ea1c2f1766348188160ac2f1930b65",
      "blockNumber": "0x17c8464",
      "gasUsed": "0x21a36",
      "effectiveGasPrice": "0xba43b7401",
      "from": "0xcf4f1999197400ff25445ffbc22cea917758144d",
      "to": "0x410355127f7cd3dc48d876913816a1e5df1c44d2",
      "contractAddress": null
    }
  ],
  "libraries": [],
  "pending": [],
  "returns": {},
  "timestamp": 1746598254,
  "chain": 146,
  "commit": "8cacecb"
}