{
  "transactions": [
    {
      "hash": "0xbd008b5fa540964ab99318f46f0f536c629264aec16508da37fe45e387df550b",
      "transactionType": "CALL",
      "contractName": null,
      "contractAddress": "0x410355127f7cd3dc48d876913816a1e5df1c44d2",
      "function": "execute((address,address,uint256,uint256,uint48,bytes,bytes))",
      "arguments": [
        "(0xcf4F1999197400fF25445FFbC22CEA917758144d, 0x786BeE5292B12AA79725cb66f0CBfb7E10A6CAc9, 0, 1000000, 281474976710655, 0x890d6908, 0xee66c3a8e8f2fc7c162612c336a80653ca10da389158eda00fd4c9ea4d53c4980bd88759f776355002821109cd89b472ad972e2129f05aad48f978affc2dea591c)"
      ],
      "transaction": {
        "from": "0xcf4f1999197400ff25445ffbc22cea917758144d",
        "to": "0x410355127f7cd3dc48d876913816a1e5df1c44d2",
        "gas": "0x83e78",
        "value": "0x0",
        "input": "0xdf905caf0000000000000000000000000000000000000000000000000000000000000020000000000000000000000000cf4f1999197400ff25445ffbc22cea917758144d000000000000000000000000786bee5292b12aa79725cb66f0cbfb7e10a6cac9000000000000000000000000000000000000000000000000000000000000000000000000000000000000000000000000000000000000000000000000000f42400000000000000000000000000000000000000000000000000000ffffffffffff00000000000000000000000000000000000000000000000000000000000000e000000000000000000000000000000000000000000000000000000000000001200000000000000000000000000000000000000000000000000000000000000004890d6908000000000000000000000000000000000000000000000000000000000000000000000000000000000000000000000000000000000000000000000041ee66c3a8e8f2fc7c162612c336a80653ca10da389158eda00fd4c9ea4d53c4980bd88759f776355002821109cd89b472ad972e2129f05aad48f978affc2dea591c00000000000000000000000000000000000000000000000000000000000000",
        "nonce": "0x7e",
        "chainId": "0x92"
      },
      "additionalContracts": [],
      "isFixedGasLimit": false
    }
  ],
  "receipts": [
    {
      "status": "0x1",
      "cumulativeGasUsed": "0x17be2",
      "logs": [],
      "logsBloom": "0x00000000000000000000000000000000000000000000000000000000000000000000000000000000000000000000000000000000000000000000000000000000000000000000000000000000000000000000000000000000000000000000000000000000000000000000000000000000000000000000000000000000000000000000000000000000000000000000000000000000000000000000000000000000000000000000000000000000000000000000000000000000000000000000000000000000000000000000000000000000000000000000000000000000000000000000000000000000000000000000000000000000000000000000000000000000",
      "type": "0x2",
      "transactionHash": "0xbd008b5fa540964ab99318f46f0f536c629264aec16508da37fe45e387df550b",
      "transactionIndex": "0x0",
      "blockHash": "0x0fab9e10df2e0a5ffa93d489bea6ccc613107b0306ebf7b3044cada4dde6209a",
      "blockNumber": "0x17c9ee3",
      "gasUsed": "0x17be2",
      "effectiveGasPrice": "0xba43b7401",
      "from": "0xcf4f1999197400ff25445ffbc22cea917758144d",
      "to": "0x410355127f7cd3dc48d876913816a1e5df1c44d2",
      "contractAddress": null
    }
  ],
  "libraries": [],
  "pending": [],
  "returns": {},
  "timestamp": 1746600600,
  "chain": 146,
  "commit": "8cacecb"
}