{
  "transactions": [
    {
      "hash": "0xb4d28cc9d0dc804ee5860ffbd8a9eac2b9d58c5311df41eaaf03ee3645a1b463",
      "transactionType": "CALL",
      "contractName": null,
      "contractAddress": "0x410355127f7cd3dc48d876913816a1e5df1c44d2",
      "function": "execute((address,address,uint256,uint256,uint48,bytes,bytes))",
      "arguments": [
        "(0xcf4F1999197400fF25445FFbC22CEA917758144d, 0x786BeE5292B12AA79725cb66f0CBfb7E10A6CAc9, 0, 1000000, 281474976710655, 0x890d6908, 0xa707a2da8cc95b5a6c5283aa7bb2723c1cc765ea5713ab32be248d807639d3814a0e20c5f4279b8784126ace1bd22d8fd9689f9dcf4391086d7b30d18de5019b1b)"
      ],
      "transaction": {
        "from": "0xcf4f1999197400ff25445ffbc22cea917758144d",
        "to": "0x410355127f7cd3dc48d876913816a1e5df1c44d2",
        "gas": "0x83e78",
        "value": "0x0",
        "input": "0xdf905caf0000000000000000000000000000000000000000000000000000000000000020000000000000000000000000cf4f1999197400ff25445ffbc22cea917758144d000000000000000000000000786bee5292b12aa79725cb66f0cbfb7e10a6cac9000000000000000000000000000000000000000000000000000000000000000000000000000000000000000000000000000000000000000000000000000f42400000000000000000000000000000000000000000000000000000ffffffffffff00000000000000000000000000000000000000000000000000000000000000e000000000000000000000000000000000000000000000000000000000000001200000000000000000000000000000000000000000000000000000000000000004890d6908000000000000000000000000000000000000000000000000000000000000000000000000000000000000000000000000000000000000000000000041a707a2da8cc95b5a6c5283aa7bb2723c1cc765ea5713ab32be248d807639d3814a0e20c5f4279b8784126ace1bd22d8fd9689f9dcf4391086d7b30d18de5019b1b00000000000000000000000000000000000000000000000000000000000000",
        "nonce": "0x8f",
        "chainId": "0x92"
      },
      "additionalContracts": [],
      "isFixedGasLimit": false
    }
  ],
  "receipts": [
    {
      "status": "0x1",
      "cumulativeGasUsed": "0x15bc14",
      "logs": [],
      "logsBloom": "0x00000000000000000000000000000000000000000000000000000000000000000000000000000000000000000000000000000000000000000000000000000000000000000000000000000000000000000000000000000000000000000000000000000000000000000000000000000000000000000000000000000000000000000000000000000000000000000000000000000000000000000000000000000000000000000000000000000000000000000000000000000000000000000000000000000000000000000000000000000000000000000000000000000000000000000000000000000000000000000000000000000000000000000000000000000000",
      "type": "0x2",
      "transactionHash": "0xb4d28cc9d0dc804ee5860ffbd8a9eac2b9d58c5311df41eaaf03ee3645a1b463",
      "transactionIndex": "0x2",
      "blockHash": "0x24449a594ff318ba6b5525129feea4243cb0d84eb291ddc4328d034f054217d0",
      "blockNumber": "0x17ca181",
      "gasUsed": "0x17be2",
      "effectiveGasPrice": "0xba43b7401",
      "from": "0xcf4f1999197400ff25445ffbc22cea917758144d",
      "to": "0x410355127f7cd3dc48d876913816a1e5df1c44d2",
      "contractAddress": null
    }
  ],
  "libraries": [],
  "pending": [],
  "returns": {},
  "timestamp": 1746600823,
  "chain": 146,
  "commit": "8cacecb"
}