{
  "transactions": [
    {
      "hash": "0x368216d6c85e36017b0e8c023fadc21868820c4a2ac958a76d765b7fa03cb566",
      "transactionType": "CALL",
      "contractName": null,
      "contractAddress": "0x6dd509f963820f3950a56e3c0abecdf8b3e92434",
      "function": "multisig((uint256,bytes32,uint8,bytes32,bytes32)[])",
      "arguments": [
        "[(0, 0xe5586d1a2d48f5f28f41e00cdf286b578a13dc36fc0b3697810f6de192bd8c35, 27, 0xd3593314b38150a39c0625464d636f44c48f1dad15e6630e435fd01e44047431, 0x2496b0d2fc8d3db9f5140b1df2f6200cc075efe7ae89e8c96530e20b4e12e677), (1, 0xb2d9fd740c389526448ea79286083be3790e5e12e4bcc6da1840a2545211ae48, 27, 0x70ccd4005a7793c815774a2614933a9015348731426d1bf579a3fab962d90087, 0x5aec1288491fcb90d11f059949d64cb971a1a2ff920d2ea508c3f39c96ce347d), (1, 0xb2d9fd740c389526448ea79286083be3790e5e12e4bcc6da1840a2545211ae48, 27, 0x70ccd4005a7793c815774a2614933a9015348731426d1bf579a3fab962d90087, 0x5aec1288491fcb90d11f059949d64cb971a1a2ff920d2ea508c3f39c96ce347d)]"
      ],
      "transaction": {
        "from": "0xcf4f1999197400ff25445ffbc22cea917758144d",
        "to": "0x6dd509f963820f3950a56e3c0abecdf8b3e92434",
        "gas": "0x19ece",
        "value": "0x0",
        "input": "0xc28666bb000000000000000000000000000000000000000000000000000000000000002000000000000000000000000000000000000000000000000000000000000000030000000000000000000000000000000000000000000000000000000000000000e5586d1a2d48f5f28f41e00cdf286b578a13dc36fc0b3697810f6de192bd8c35000000000000000000000000000000000000000000000000000000000000001bd3593314b38150a39c0625464d636f44c48f1dad15e6630e435fd01e440474312496b0d2fc8d3db9f5140b1df2f6200cc075efe7ae89e8c96530e20b4e12e6770000000000000000000000000000000000000000000000000000000000000001b2d9fd740c389526448ea79286083be3790e5e12e4bcc6da1840a2545211ae48000000000000000000000000000000000000000000000000000000000000001b70ccd4005a7793c815774a2614933a9015348731426d1bf579a3fab962d900875aec1288491fcb90d11f059949d64cb971a1a2ff920d2ea508c3f39c96ce347d0000000000000000000000000000000000000000000000000000000000000001b2d9fd740c389526448ea79286083be3790e5e12e4bcc6da1840a2545211ae48000000000000000000000000000000000000000000000000000000000000001b70ccd4005a7793c815774a2614933a9015348731426d1bf579a3fab962d900875aec1288491fcb90d11f059949d64cb971a1a2ff920d2ea508c3f39c96ce347d",
        "nonce": "0xa3",
        "chainId": "0x92"
      },
      "additionalContracts": [],
      "isFixedGasLimit": false
    }
  ],
  "receipts": [
    {
      "status": "0x1",
      "cumulativeGasUsed": "0x26583d",
      "logs": [
        {
          "address": "0x38dd721dfd51fdee02e6641e0ce0d5872adb90b1",
          "topics": [
            "0xc625705cf94e8c45f7de2f2956b66a8e4961e5ce6c62d1187e09ac0d3421703e",
            "0x0000000000000000000000006dd509f963820f3950a56e3c0abecdf8b3e92434",
            "0x000000000000000000000000cf4f1999197400ff25445ffbc22cea917758144d",
            "0x000000000000000000000000000000000000000000000000000000000000001e"
          ],
          "data": "0x",
          "blockHash": "0x0f3773360d4f77de650e6485265db675b87d16a05324a8de5512c3ec5d78c93c",
          "blockNumber": "0x18089db",
          "transactionHash": "0x368216d6c85e36017b0e8c023fadc21868820c4a2ac958a76d765b7fa03cb566",
          "transactionIndex": "0x2",
          "logIndex": "0x6c",
          "removed": false
        }
      ],
      "logsBloom": "0x00002000000000000000000000000000000000000100000800000000000000000000000000000000000000000400000804000000000000000000000000000000000000000000008000000000000000000000000000000000000000040000000000000000000000000000000000000000000000000000000000100000000000000001000000000000000000000000000000000000000000000000000000000000000000000000000000000000000000000000000000000000000000000000000000008000000000000080000000000000000000000000000000000200000000000000000000000400080000000000000000000000000000000000000000000000",
      "type": "0x2",
      "transactionHash": "0x368216d6c85e36017b0e8c023fadc21868820c4a2ac958a76d765b7fa03cb566",
      "transactionIndex": "0x2",
      "blockHash": "0x0f3773360d4f77de650e6485265db675b87d16a05324a8de5512c3ec5d78c93c",
      "blockNumber": "0x18089db",
      "gasUsed": "0x137c3",
      "effectiveGasPrice": "0xba43b7401",
      "from": "0xcf4f1999197400ff25445ffbc22cea917758144d",
      "to": "0x6dd509f963820f3950a56e3c0abecdf8b3e92434",
      "contractAddress": null
    }
  ],
  "libraries": [],
  "pending": [],
  "returns": {},
  "timestamp": 1746691012,
  "chain": 146,
  "commit": "8cacecb"
}