{
  "transactions": [
    {
      "hash": "0x12e4c15be9282f4205b3a734b68644e466b67f45c03d096f3b93e54d13abc0a8",
      "transactionType": "CALL",
      "contractName": null,
      "contractAddress": "0x410355127f7cd3dc48d876913816a1e5df1c44d2",
      "function": "execute((address,address,uint256,uint256,uint48,bytes,bytes))",
      "arguments": [
        "(0xcf4F1999197400fF25445FFbC22CEA917758144d, 0x786BeE5292B12AA79725cb66f0CBfb7E10A6CAc9, 0, 1000000, 281474976710655, 0x890d6908, 0x2cc3b0249f50124ce9fb5b0e58a277445f2da94bca01eb93b25c667979068dca3ee5e263ac62fe6ffecb844ca47bcba0161ee352f0896f31afef3b32c373deed1b)"
      ],
      "transaction": {
        "from": "0xcf4f1999197400ff25445ffbc22cea917758144d",
        "to": "0x410355127f7cd3dc48d876913816a1e5df1c44d2",
        "gas": "0x83e78",
        "value": "0x0",
        "input": "0xdf905caf0000000000000000000000000000000000000000000000000000000000000020000000000000000000000000cf4f1999197400ff25445ffbc22cea917758144d000000000000000000000000786bee5292b12aa79725cb66f0cbfb7e10a6cac9000000000000000000000000000000000000000000000000000000000000000000000000000000000000000000000000000000000000000000000000000f42400000000000000000000000000000000000000000000000000000ffffffffffff00000000000000000000000000000000000000000000000000000000000000e000000000000000000000000000000000000000000000000000000000000001200000000000000000000000000000000000000000000000000000000000000004890d69080000000000000000000000000000000000000000000000000000000000000000000000000000000000000000000000000000000000000000000000412cc3b0249f50124ce9fb5b0e58a277445f2da94bca01eb93b25c667979068dca3ee5e263ac62fe6ffecb844ca47bcba0161ee352f0896f31afef3b32c373deed1b00000000000000000000000000000000000000000000000000000000000000",
        "nonce": "0x10",
        "chainId": "0x92"
      },
      "additionalContracts": [],
      "isFixedGasLimit": false
    }
  ],
  "receipts": [
    {
      "status": "0x1",
      "cumulativeGasUsed": "0x2364b",
      "logs": [],
      "logsBloom": "0x00000000000000000000000000000000000000000000000000000000000000000000000000000000000000000000000000000000000000000000000000000000000000000000000000000000000000000000000000000000000000000000000000000000000000000000000000000000000000000000000000000000000000000000000000000000000000000000000000000000000000000000000000000000000000000000000000000000000000000000000000000000000000000000000000000000000000000000000000000000000000000000000000000000000000000000000000000000000000000000000000000000000000000000000000000000",
      "type": "0x2",
      "transactionHash": "0x12e4c15be9282f4205b3a734b68644e466b67f45c03d096f3b93e54d13abc0a8",
      "transactionIndex": "0x1",
      "blockHash": "0xba59a78fad90512eb61b1884805e104e2666197732a80259a77f552322660060",
      "blockNumber": "0x17c83f6",
      "gasUsed": "0x17be2",
      "effectiveGasPrice": "0xba43b7401",
      "from": "0xcf4f1999197400ff25445ffbc22cea917758144d",
      "to": "0x410355127f7cd3dc48d876913816a1e5df1c44d2",
      "contractAddress": null
    }
  ],
  "libraries": [],
  "pending": [],
  "returns": {},
  "timestamp": 1746598214,
  "chain": 146,
  "commit": "8cacecb"
}