{
  "transactions": [
    {
      "hash": "0x0014bf4f78db18177ab13a8a5ada1f3612086e1b82de9060979628867b5c6020",
      "transactionType": "CALL",
      "contractName": null,
      "contractAddress": "0x410355127f7cd3dc48d876913816a1e5df1c44d2",
      "function": "execute((address,address,uint256,uint256,uint48,bytes,bytes))",
      "arguments": [
        "(0xcf4F1999197400fF25445FFbC22CEA917758144d, 0x786BeE5292B12AA79725cb66f0CBfb7E10A6CAc9, 0, 1000000, 281474976710655, 0x890d6908, 0x185bf4de36443448de64cfb09c99817b18ecc8ee2d33291d8138007e00ef7c2f76bb630030db34a45212c75624014bcc1367d9c72ecf162ad544e728fa466e571b)"
      ],
      "transaction": {
        "from": "0xcf4f1999197400ff25445ffbc22cea917758144d",
        "to": "0x410355127f7cd3dc48d876913816a1e5df1c44d2",
        "gas": "0x7c7b8",
        "value": "0x0",
        "input": "0xdf905caf0000000000000000000000000000000000000000000000000000000000000020000000000000000000000000cf4f1999197400ff25445ffbc22cea917758144d000000000000000000000000786bee5292b12aa79725cb66f0cbfb7e10a6cac9000000000000000000000000000000000000000000000000000000000000000000000000000000000000000000000000000000000000000000000000000f42400000000000000000000000000000000000000000000000000000ffffffffffff00000000000000000000000000000000000000000000000000000000000000e000000000000000000000000000000000000000000000000000000000000001200000000000000000000000000000000000000000000000000000000000000004890d6908000000000000000000000000000000000000000000000000000000000000000000000000000000000000000000000000000000000000000000000041185bf4de36443448de64cfb09c99817b18ecc8ee2d33291d8138007e00ef7c2f76bb630030db34a45212c75624014bcc1367d9c72ecf162ad544e728fa466e571b00000000000000000000000000000000000000000000000000000000000000",
        "nonce": "0x70",
        "chainId": "0x92"
      },
      "additionalContracts": [],
      "isFixedGasLimit": false
    }
  ],
  "receipts": [
    {
      "status": "0x1",
      "cumulativeGasUsed": "0xee970",
      "logs": [],
      "logsBloom": "0x00000000000000000000000000000000000000000000000000000000000000000000000000000000000000000000000000000000000000000000000000000000000000000000000000000000000000000000000000000000000000000000000000000000000000000000000000000000000000000000000000000000000000000000000000000000000000000000000000000000000000000000000000000000000000000000000000000000000000000000000000000000000000000000000000000000000000000000000000000000000000000000000000000000000000000000000000000000000000000000000000000000000000000000000000000000",
      "type": "0x2",
      "transactionHash": "0x0014bf4f78db18177ab13a8a5ada1f3612086e1b82de9060979628867b5c6020",
      "transactionIndex": "0x3",
      "blockHash": "0xaf8fc020e80b28bbfef2d171f4ed9c37b66485d9d41ee16bf128f064068f023e",
      "blockNumber": "0x17c9cc0",
      "gasUsed": "0x16fe2",
      "effectiveGasPrice": "0xba43b7401",
      "from": "0xcf4f1999197400ff25445ffbc22cea917758144d",
      "to": "0x410355127f7cd3dc48d876913816a1e5df1c44d2",
      "contractAddress": null
    }
  ],
  "libraries": [],
  "pending": [],
  "returns": {},
  "timestamp": 1746600415,
  "chain": 146,
  "commit": "8cacecb"
}