{
  "transactions": [
    {
      "hash": "0x40ca0eb536be5ee123c2a5e0766ab0f03a23146965fc5e89f531d91eb6606a45",
      "transactionType": "CALL",
      "contractName": null,
      "contractAddress": "0x410355127f7cd3dc48d876913816a1e5df1c44d2",
      "function": "execute((address,address,uint256,uint256,uint48,bytes,bytes))",
      "arguments": [
        "(0xcf4F1999197400fF25445FFbC22CEA917758144d, 0x786BeE5292B12AA79725cb66f0CBfb7E10A6CAc9, 0, 1000000, 281474976710655, 0x95805dad000000000000000000000000000000000000000000000000000000000000000a, 0xfe7cebc65afa35decbd77671bb32f0fec937e2b5931fa1a3b4d6d7bb3f8b0d916ddf19b7084147c0fadda205a40dae32a64cf127444c8e2cc6312828d2b7abcf1b)"
      ],
      "transaction": {
        "from": "0xcf4f1999197400ff25445ffbc22cea917758144d",
        "to": "0x410355127f7cd3dc48d876913816a1e5df1c44d2",
        "gas": "0xfd6f6",
        "value": "0x0",
        "input": "0xdf905caf0000000000000000000000000000000000000000000000000000000000000020000000000000000000000000cf4f1999197400ff25445ffbc22cea917758144d000000000000000000000000786bee5292b12aa79725cb66f0cbfb7e10a6cac9000000000000000000000000000000000000000000000000000000000000000000000000000000000000000000000000000000000000000000000000000f42400000000000000000000000000000000000000000000000000000ffffffffffff00000000000000000000000000000000000000000000000000000000000000e00000000000000000000000000000000000000000000000000000000000000140000000000000000000000000000000000000000000000000000000000000002495805dad000000000000000000000000000000000000000000000000000000000000000a000000000000000000000000000000000000000000000000000000000000000000000000000000000000000000000000000000000000000000000041fe7cebc65afa35decbd77671bb32f0fec937e2b5931fa1a3b4d6d7bb3f8b0d916ddf19b7084147c0fadda205a40dae32a64cf127444c8e2cc6312828d2b7abcf1b00000000000000000000000000000000000000000000000000000000000000",
        "nonce": "0x75",
        "chainId": "0x92"
      },
      "additionalContracts": [],
      "isFixedGasLimit": false
    }
  ],
  "receipts": [
    {
      "status": "0x1",
      "cumulativeGasUsed": "0x4e237",
      "logs": [
        {
          "address": "0xec83a9d2a4d1fbd20b062297a1996f17803ee4a4",
          "topics": [
            "0x842fb24a83793558587a3dab2be7674da4a51d09c5542d6dd354e5d0ea70813c",
            "0x000000000000000000000000cf4f1999197400ff25445ffbc22cea917758144d"
          ],
          "data": "0x00000000000000000000000000000000000000000000000000000000000000040000000000000000000000000000000000000000000000000000000000000001",
          "blockHash": "0xa5f85d329f0ae3af565703caed8b2183b2be9844d3b7d941aba53573431c222a",
          "blockNumber": "0x17c9d8d",
          "transactionHash": "0x40ca0eb536be5ee123c2a5e0766ab0f03a23146965fc5e89f531d91eb6606a45",
          "transactionIndex": "0x1",
          "logIndex": "0x3",
          "removed": false
        }
      ],
      "logsBloom": "0x00002000000800000000000000000000000000000084000000000000000000000000000000000000000000000000000000000000000000000000000000000000000000000000000000000000000000000000000000000000000000000000000000000000000000000002000000000000000000000000000000000000000000000004000400000000000000000000000000000000000000000000000000000000000000000000000000000000000000000000000000000000000000000000000000000000000000000080000000000000000000000000000000000000000000000000000000000400000000000000000000000000000000000000000000000000",
      "type": "0x2",
      "transactionHash": "0x40ca0eb536be5ee123c2a5e0766ab0f03a23146965fc5e89f531d91eb6606a45",
      "transactionIndex": "0x1",
      "blockHash": "0xa5f85d329f0ae3af565703caed8b2183b2be9844d3b7d941aba53573431c222a",
      "blockNumber": "0x17c9d8d",
      "gasUsed": "0x2ecf9",
      "effectiveGasPrice": "0xba43b7401",
      "from": "0xcf4f1999197400ff25445ffbc22cea917758144d",
      "to": "0x410355127f7cd3dc48d876913816a1e5df1c44d2",
      "contractAddress": null
    }
  ],
  "libraries": [],
  "pending": [],
  "returns": {},
  "timestamp": 1746600482,
  "chain": 146,
  "commit": "8cacecb"
}