{
  "transactions": [
    {
      "hash": "0x34264f35051ad8ad2f03f2a3e1fddd9685b1294603b31ad2ca4b765b162ceaa0",
      "transactionType": "CALL",
      "contractName": null,
      "contractAddress": "0x410355127f7cd3dc48d876913816a1e5df1c44d2",
      "function": "execute((address,address,uint256,uint256,uint48,bytes,bytes))",
      "arguments": [
        "(0xcf4F1999197400fF25445FFbC22CEA917758144d, 0x786BeE5292B12AA79725cb66f0CBfb7E10A6CAc9, 0, 1000000, 281474976710655, 0x890d6908, 0x58f445cc7f7be26f0ded216357809a8bf69deaea181ccaa93f24f8cd7966e28e4b30af29baa90d5d18178e82dc76a962ba434e5177f6f5052e60fe1a25dac2041c)"
      ],
      "transaction": {
        "from": "0xcf4f1999197400ff25445ffbc22cea917758144d",
        "to": "0x410355127f7cd3dc48d876913816a1e5df1c44d2",
        "gas": "0x83e78",
        "value": "0x0",
        "input": "0xdf905caf0000000000000000000000000000000000000000000000000000000000000020000000000000000000000000cf4f1999197400ff25445ffbc22cea917758144d000000000000000000000000786bee5292b12aa79725cb66f0cbfb7e10a6cac9000000000000000000000000000000000000000000000000000000000000000000000000000000000000000000000000000000000000000000000000000f42400000000000000000000000000000000000000000000000000000ffffffffffff00000000000000000000000000000000000000000000000000000000000000e000000000000000000000000000000000000000000000000000000000000001200000000000000000000000000000000000000000000000000000000000000004890d690800000000000000000000000000000000000000000000000000000000000000000000000000000000000000000000000000000000000000000000004158f445cc7f7be26f0ded216357809a8bf69deaea181ccaa93f24f8cd7966e28e4b30af29baa90d5d18178e82dc76a962ba434e5177f6f5052e60fe1a25dac2041c00000000000000000000000000000000000000000000000000000000000000",
        "nonce": "0xa2",
        "chainId": "0x92"
      },
      "additionalContracts": [],
      "isFixedGasLimit": false
    }
  ],
  "receipts": [
    {
      "status": "0x1",
      "cumulativeGasUsed": "0xf596e",
      "logs": [
        {
          "address": "0x38dd721dfd51fdee02e6641e0ce0d5872adb90b1",
          "topics": [
            "0xc625705cf94e8c45f7de2f2956b66a8e4961e5ce6c62d1187e09ac0d3421703e",
            "0x000000000000000000000000786bee5292b12aa79725cb66f0cbfb7e10a6cac9",
            "0x000000000000000000000000cf4f1999197400ff25445ffbc22cea917758144d",
            "0x000000000000000000000000000000000000000000000000000000000000000a"
          ],
          "data": "0x",
          "blockHash": "0xc08d7d911202c3d1680eaeb53afc0bbf7a06e62a223dbe99239d4bd502bd7fdd",
          "blockNumber": "0x17ca47e",
          "transactionHash": "0x34264f35051ad8ad2f03f2a3e1fddd9685b1294603b31ad2ca4b765b162ceaa0",
          "transactionIndex": "0x1",
          "logIndex": "0x2",
          "removed": false
        },
        {
          "address": "0xec83a9d2a4d1fbd20b062297a1996f17803ee4a4",
          "topics": [
            "0x842fb24a83793558587a3dab2be7674da4a51d09c5542d6dd354e5d0ea70813c",
            "0x000000000000000000000000cf4f1999197400ff25445ffbc22cea917758144d"
          ],
          "data": "0x00000000000000000000000000000000000000000000000000000000000000090000000000000000000000000000000000000000000000000000000000000001",
          "blockHash": "0xc08d7d911202c3d1680eaeb53afc0bbf7a06e62a223dbe99239d4bd502bd7fdd",
          "blockNumber": "0x17ca47e",
          "transactionHash": "0x34264f35051ad8ad2f03f2a3e1fddd9685b1294603b31ad2ca4b765b162ceaa0",
          "transactionIndex": "0x1",
          "logIndex": "0x3",
          "removed": false
        }
      ],
      "logsBloom": "0x00002000000800000000000000000000000000000184000800000000000000000000000000000000000000000000000804000000040000000020000000000000000000000000020000000000000000000000000000000000000000000000000000000000000000000002000000000000000000000000000000100000000000000005000400040000010000000000000000000000000000000000000000000000000000000000000000000000000000000000000000000000000000000000000000000000000000000080000000000000000000000000000000000000000000000000000000200400000000000000000000000000000000000000000000000000",
      "type": "0x2",
      "transactionHash": "0x34264f35051ad8ad2f03f2a3e1fddd9685b1294603b31ad2ca4b765b162ceaa0",
      "transactionIndex": "0x1",
      "blockHash": "0xc08d7d911202c3d1680eaeb53afc0bbf7a06e62a223dbe99239d4bd502bd7fdd",
      "blockNumber": "0x17ca47e",
      "gasUsed": "0x26e91",
      "effectiveGasPrice": "0xba43b7401",
      "from": "0xcf4f1999197400ff25445ffbc22cea917758144d",
      "to": "0x410355127f7cd3dc48d876913816a1e5df1c44d2",
      "contractAddress": null
    }
  ],
  "libraries": [],
  "pending": [],
  "returns": {},
  "timestamp": 1746601071,
  "chain": 146,
  "commit": "8cacecb"
}