{
  "transactions": [
    {
      "hash": "0x0093886d6069dda791af3ac4c79cb66113d8276e637a0d7dbe0f57fad017e348",
      "transactionType": "CALL",
      "contractName": null,
      "contractAddress": "0x410355127f7cd3dc48d876913816a1e5df1c44d2",
      "function": "execute((address,address,uint256,uint256,uint48,bytes,bytes))",
      "arguments": [
        "(0xcf4F1999197400fF25445FFbC22CEA917758144d, 0x786BeE5292B12AA79725cb66f0CBfb7E10A6CAc9, 0, 1000000, 281474976710655, 0x95805dad0000000000000000000000000000000000000000000000000000000000000002, 0x2c1e36eaae723fd989f260dae1f53775cc4fa869904402c4392b30f0054c00fa54cceb7eff61d50e2f3b31803741b383872e7a76072fb2f601a9102787eff57b1c)"
      ],
      "transaction": {
        "from": "0xcf4f1999197400ff25445ffbc22cea917758144d",
        "to": "0x410355127f7cd3dc48d876913816a1e5df1c44d2",
        "gas": "0x10c4f8",
        "value": "0x0",
        "input": "0xdf905caf0000000000000000000000000000000000000000000000000000000000000020000000000000000000000000cf4f1999197400ff25445ffbc22cea917758144d000000000000000000000000786bee5292b12aa79725cb66f0cbfb7e10a6cac9000000000000000000000000000000000000000000000000000000000000000000000000000000000000000000000000000000000000000000000000000f42400000000000000000000000000000000000000000000000000000ffffffffffff00000000000000000000000000000000000000000000000000000000000000e00000000000000000000000000000000000000000000000000000000000000140000000000000000000000000000000000000000000000000000000000000002495805dad00000000000000000000000000000000000000000000000000000000000000020000000000000000000000000000000000000000000000000000000000000000000000000000000000000000000000000000000000000000000000412c1e36eaae723fd989f260dae1f53775cc4fa869904402c4392b30f0054c00fa54cceb7eff61d50e2f3b31803741b383872e7a76072fb2f601a9102787eff57b1c00000000000000000000000000000000000000000000000000000000000000",
        "nonce": "0x84",
        "chainId": "0x92"
      },
      "additionalContracts": [],
      "isFixedGasLimit": false
    }
  ],
  "receipts": [
    {
      "status": "0x1",
      "cumulativeGasUsed": "0xf62ea",
      "logs": [
        {
          "address": "0xec83a9d2a4d1fbd20b062297a1996f17803ee4a4",
          "topics": [
            "0x842fb24a83793558587a3dab2be7674da4a51d09c5542d6dd354e5d0ea70813c",
            "0x000000000000000000000000cf4f1999197400ff25445ffbc22cea917758144d"
          ],
          "data": "0x00000000000000000000000000000000000000000000000000000000000000060000000000000000000000000000000000000000000000000000000000000001",
          "blockHash": "0x9318235c93c96e7f11e4d8d02558297a45998c8a7c9ff21f48e3f9fb7ab6c062",
          "blockNumber": "0x17c9fd6",
          "transactionHash": "0x0093886d6069dda791af3ac4c79cb66113d8276e637a0d7dbe0f57fad017e348",
          "transactionIndex": "0x1",
          "logIndex": "0x2",
          "removed": false
        }
      ],
      "logsBloom": "0x00002000000800000000000000000000000000000084000000000000000000000000000000000000000000000000000000000000000000000000000000000000000000000000000000000000000000000000000000000000000000000000000000000000000000000002000000000000000000000000000000000000000000000004000400000000000000000000000000000000000000000000000000000000000000000000000000000000000000000000000000000000000000000000000000000000000000000080000000000000000000000000000000000000000000000000000000000400000000000000000000000000000000000000000000000000",
      "type": "0x2",
      "transactionHash": "0x0093886d6069dda791af3ac4c79cb66113d8276e637a0d7dbe0f57fad017e348",
      "transactionIndex": "0x1",
      "blockHash": "0x9318235c93c96e7f11e4d8d02558297a45998c8a7c9ff21f48e3f9fb7ab6c062",
      "blockNumber": "0x17c9fd6",
      "gasUsed": "0x304bc",
      "effectiveGasPrice": "0xba43b7401",
      "from": "0xcf4f1999197400ff25445ffbc22cea917758144d",
      "to": "0x410355127f7cd3dc48d876913816a1e5df1c44d2",
      "contractAddress": null
    }
  ],
  "libraries": [],
  "pending": [],
  "returns": {},
  "timestamp": 1746600678,
  "chain": 146,
  "commit": "8cacecb"
}