{
  "transactions": [
    {
      "hash": "0x41beb544fd2d3446967d29fc4b2ef27c93e6e691889849a1a711ddf5de952c3f",
      "transactionType": "CALL",
      "contractName": null,
      "contractAddress": "0x410355127f7cd3dc48d876913816a1e5df1c44d2",
      "function": "execute((address,address,uint256,uint256,uint48,bytes,bytes))",
      "arguments": [
        "(0xcf4F1999197400fF25445FFbC22CEA917758144d, 0x786BeE5292B12AA79725cb66f0CBfb7E10A6CAc9, 0, 1000000, 281474976710655, 0x95805dad0000000000000000000000000000000000000000000000000000000000000013, 0xcb2a86971cb8a771e4cac0b7d849c9a1f40c2370ee82414f9ebd055227bbde2741437d5d97dfe577065f7b390d7b0565d914a75c84e62817dcac20dba7e663af1b)"
      ],
      "transaction": {
        "from": "0xcf4f1999197400ff25445ffbc22cea917758144d",
        "to": "0x410355127f7cd3dc48d876913816a1e5df1c44d2",
        "gas": "0xfd6f6",
        "value": "0x0",
        "input": "0xdf905caf0000000000000000000000000000000000000000000000000000000000000020000000000000000000000000cf4f1999197400ff25445ffbc22cea917758144d000000000000000000000000786bee5292b12aa79725cb66f0cbfb7e10a6cac9000000000000000000000000000000000000000000000000000000000000000000000000000000000000000000000000000000000000000000000000000f42400000000000000000000000000000000000000000000000000000ffffffffffff00000000000000000000000000000000000000000000000000000000000000e00000000000000000000000000000000000000000000000000000000000000140000000000000000000000000000000000000000000000000000000000000002495805dad0000000000000000000000000000000000000000000000000000000000000013000000000000000000000000000000000000000000000000000000000000000000000000000000000000000000000000000000000000000000000041cb2a86971cb8a771e4cac0b7d849c9a1f40c2370ee82414f9ebd055227bbde2741437d5d97dfe577065f7b390d7b0565d914a75c84e62817dcac20dba7e663af1b00000000000000000000000000000000000000000000000000000000000000",
        "nonce": "0xa1",
        "chainId": "0x92"
      },
      "additionalContracts": [],
      "isFixedGasLimit": false
    }
  ],
  "receipts": [
    {
      "status": "0x1",
      "cumulativeGasUsed": "0x12e4d1",
      "logs": [
        {
          "address": "0xec83a9d2a4d1fbd20b062297a1996f17803ee4a4",
          "topics": [
            "0x842fb24a83793558587a3dab2be7674da4a51d09c5542d6dd354e5d0ea70813c",
            "0x000000000000000000000000cf4f1999197400ff25445ffbc22cea917758144d"
          ],
          "data": "0x00000000000000000000000000000000000000000000000000000000000000080000000000000000000000000000000000000000000000000000000000000001",
          "blockHash": "0xde0b639cb748c54aae8f3a91e0a94d790492a2b3f98dd5900f40671f8e9b6690",
          "blockNumber": "0x17ca453",
          "transactionHash": "0x41beb544fd2d3446967d29fc4b2ef27c93e6e691889849a1a711ddf5de952c3f",
          "transactionIndex": "0x9",
          "logIndex": "0x3",
          "removed": false
        }
      ],
      "logsBloom": "0x00002000000800000000000000000000000000000084000000000000000000000000000000000000000000000000000000000000000000000000000000000000000000000000000000000000000000000000000000000000000000000000000000000000000000000002000000000000000000000000000000000000000000000004000400000000000000000000000000000000000000000000000000000000000000000000000000000000000000000000000000000000000000000000000000000000000000000080000000000000000000000000000000000000000000000000000000000400000000000000000000000000000000000000000000000000",
      "type": "0x2",
      "transactionHash": "0x41beb544fd2d3446967d29fc4b2ef27c93e6e691889849a1a711ddf5de952c3f",
      "transactionIndex": "0x9",
      "blockHash": "0xde0b639cb748c54aae8f3a91e0a94d790492a2b3f98dd5900f40671f8e9b6690",
      "blockNumber": "0x17ca453",
      "gasUsed": "0x2ecf9",
      "effectiveGasPrice": "0xba43b7401",
      "from": "0xcf4f1999197400ff25445ffbc22cea917758144d",
      "to": "0x410355127f7cd3dc48d876913816a1e5df1c44d2",
      "contractAddress": null
    }
  ],
  "libraries": [],
  "pending": [],
  "returns": {},
  "timestamp": 1746601058,
  "chain": 146,
  "commit": "8cacecb"
}