{
  "transactions": [
    {
      "hash": "0xd5b9718f4dc942011c1248f9b775de22231310c68dc0328501d355becd9cd616",
      "transactionType": "CALL",
      "contractName": null,
      "contractAddress": "0x410355127f7cd3dc48d876913816a1e5df1c44d2",
      "function": "execute((address,address,uint256,uint256,uint48,bytes,bytes))",
      "arguments": [
        "(0xcf4F1999197400fF25445FFbC22CEA917758144d, 0x786BeE5292B12AA79725cb66f0CBfb7E10A6CAc9, 0, 1000000, 281474976710655, 0x95805dad0000000000000000000000000000000000000000000000000000000000000019, 0x3da358b947c8a664c5078e8d5dc3953ab383e7f8d0be2e513960bf5abfc03e74587d60bd7d227604c12b2cd4794377bc3f005283d1ba9d267f95af6449be2da41c)"
      ],
      "transaction": {
        "from": "0xcf4f1999197400ff25445ffbc22cea917758144d",
        "to": "0x410355127f7cd3dc48d876913816a1e5df1c44d2",
        "gas": "0x10c4f8",
        "value": "0x0",
        "input": "0xdf905caf0000000000000000000000000000000000000000000000000000000000000020000000000000000000000000cf4f1999197400ff25445ffbc22cea917758144d000000000000000000000000786bee5292b12aa79725cb66f0cbfb7e10a6cac9000000000000000000000000000000000000000000000000000000000000000000000000000000000000000000000000000000000000000000000000000f42400000000000000000000000000000000000000000000000000000ffffffffffff00000000000000000000000000000000000000000000000000000000000000e00000000000000000000000000000000000000000000000000000000000000140000000000000000000000000000000000000000000000000000000000000002495805dad00000000000000000000000000000000000000000000000000000000000000190000000000000000000000000000000000000000000000000000000000000000000000000000000000000000000000000000000000000000000000413da358b947c8a664c5078e8d5dc3953ab383e7f8d0be2e513960bf5abfc03e74587d60bd7d227604c12b2cd4794377bc3f005283d1ba9d267f95af6449be2da41c00000000000000000000000000000000000000000000000000000000000000",
        "nonce": "0x14",
        "chainId": "0x92"
      },
      "additionalContracts": [],
      "isFixedGasLimit": false
    }
  ],
  "receipts": [
    {
      "status": "0x1",
      "cumulativeGasUsed": "0x304bc",
      "logs": [
        {
          "address": "0xec83a9d2a4d1fbd20b062297a1996f17803ee4a4",
          "topics": [
            "0x842fb24a83793558587a3dab2be7674da4a51d09c5542d6dd354e5d0ea70813c",
            "0x000000000000000000000000cf4f1999197400ff25445ffbc22cea917758144d"
          ],
          "data": "0x00000000000000000000000000000000000000000000000000000000000000020000000000000000000000000000000000000000000000000000000000000001",
          "blockHash": "0xfee923bd236a555d66795770d9004c04aad49d899144bfefde0edd9d7bcc501e",
          "blockNumber": "0x17c848a",
          "transactionHash": "0xd5b9718f4dc942011c1248f9b775de22231310c68dc0328501d355becd9cd616",
          "transactionIndex": "0x0",
          "logIndex": "0x0",
          "removed": false
        }
      ],
      "logsBloom": "0x00002000000800000000000000000000000000000084000000000000000000000000000000000000000000000000000000000000000000000000000000000000000000000000000000000000000000000000000000000000000000000000000000000000000000000002000000000000000000000000000000000000000000000004000400000000000000000000000000000000000000000000000000000000000000000000000000000000000000000000000000000000000000000000000000000000000000000080000000000000000000000000000000000000000000000000000000000400000000000000000000000000000000000000000000000000",
      "type": "0x2",
      "transactionHash": "0xd5b9718f4dc942011c1248f9b775de22231310c68dc0328501d355becd9cd616",
      "transactionIndex": "0x0",
      "blockHash": "0xfee923bd236a555d66795770d9004c04aad49d899144bfefde0edd9d7bcc501e",
      "blockNumber": "0x17c848a",
      "gasUsed": "0x304bc",
      "effectiveGasPrice": "0xba43b7401",
      "from": "0xcf4f1999197400ff25445ffbc22cea917758144d",
      "to": "0x410355127f7cd3dc48d876913816a1e5df1c44d2",
      "contractAddress": null
    }
  ],
  "libraries": [],
  "pending": [],
  "returns": {},
  "timestamp": 1746598267,
  "chain": 146,
  "commit": "8cacecb"
}