{
  "transactions": [
    {
      "hash": "0xf061ae7a40574301a327548cb337de8ee6e2389eebc49d6f7f88c66ba542a9cf",
      "transactionType": "CALL",
      "contractName": null,
      "contractAddress": "0x410355127f7cd3dc48d876913816a1e5df1c44d2",
      "function": "execute((address,address,uint256,uint256,uint48,bytes,bytes))",
      "arguments": [
        "(0xcf4F1999197400fF25445FFbC22CEA917758144d, 0x786BeE5292B12AA79725cb66f0CBfb7E10A6CAc9, 0, 1000000, 281474976710655, 0x890d6908, 0xa707a2da8cc95b5a6c5283aa7bb2723c1cc765ea5713ab32be248d807639d3814a0e20c5f4279b8784126ace1bd22d8fd9689f9dcf4391086d7b30d18de5019b1b)"
      ],
      "transaction": {
        "from": "0xcf4f1999197400ff25445ffbc22cea917758144d",
        "to": "0x410355127f7cd3dc48d876913816a1e5df1c44d2",
        "gas": "0x83e78",
        "value": "0x0",
        "input": "0xdf905caf0000000000000000000000000000000000000000000000000000000000000020000000000000000000000000cf4f1999197400ff25445ffbc22cea917758144d000000000000000000000000786bee5292b12aa79725cb66f0cbfb7e10a6cac9000000000000000000000000000000000000000000000000000000000000000000000000000000000000000000000000000000000000000000000000000f42400000000000000000000000000000000000000000000000000000ffffffffffff00000000000000000000000000000000000000000000000000000000000000e000000000000000000000000000000000000000000000000000000000000001200000000000000000000000000000000000000000000000000000000000000004890d6908000000000000000000000000000000000000000000000000000000000000000000000000000000000000000000000000000000000000000000000041a707a2da8cc95b5a6c5283aa7bb2723c1cc765ea5713ab32be248d807639d3814a0e20c5f4279b8784126ace1bd22d8fd9689f9dcf4391086d7b30d18de5019b1b00000000000000000000000000000000000000000000000000000000000000",
        "nonce": "0xa0",
        "chainId": "0x92"
      },
      "additionalContracts": [],
      "isFixedGasLimit": false
    }
  ],
  "receipts": [
    {
      "status": "0x1",
      "cumulativeGasUsed": "0x54359",
      "logs": [
        {
          "address": "0xec83a9d2a4d1fbd20b062297a1996f17803ee4a4",
          "topics": [
            "0x842fb24a83793558587a3dab2be7674da4a51d09c5542d6dd354e5d0ea70813c",
            "0x000000000000000000000000cf4f1999197400ff25445ffbc22cea917758144d"
          ],
          "data": "0x00000000000000000000000000000000000000000000000000000000000000070000000000000000000000000000000000000000000000000000000000000001",
          "blockHash": "0xbca63ffd5e7b498682368b8500229ec32a99afe88459e58175421cf0a83321b1",
          "blockNumber": "0x17ca429",
          "transactionHash": "0xf061ae7a40574301a327548cb337de8ee6e2389eebc49d6f7f88c66ba542a9cf",
          "transactionIndex": "0x2",
          "logIndex": "0x5",
          "removed": false
        }
      ],
      "logsBloom": "0x00002000000800000000000000000000000000000084000000000000000000000000000000000000000000000000000000000000000000000000000000000000000000000000000000000000000000000000000000000000000000000000000000000000000000000002000000000000000000000000000000000000000000000004000400000000000000000000000000000000000000000000000000000000000000000000000000000000000000000000000000000000000000000000000000000000000000000080000000000000000000000000000000000000000000000000000000000400000000000000000000000000000000000000000000000000",
      "type": "0x2",
      "transactionHash": "0xf061ae7a40574301a327548cb337de8ee6e2389eebc49d6f7f88c66ba542a9cf",
      "transactionIndex": "0x2",
      "blockHash": "0xbca63ffd5e7b498682368b8500229ec32a99afe88459e58175421cf0a83321b1",
      "blockNumber": "0x17ca429",
      "gasUsed": "0x1de18",
      "effectiveGasPrice": "0xba43b7401",
      "from": "0xcf4f1999197400ff25445ffbc22cea917758144d",
      "to": "0x410355127f7cd3dc48d876913816a1e5df1c44d2",
      "contractAddress": null
    }
  ],
  "libraries": [],
  "pending": [],
  "returns": {},
  "timestamp": 1746601045,
  "chain": 146,
  "commit": "8cacecb"
}