{
  "transactions": [
    {
      "hash": "0xd09afacaa3fce771278dd6b8975e12c9dea7f2d8199008a314c8982acb7d28fe",
      "transactionType": "CALL",
      "contractName": null,
      "contractAddress": "0x410355127f7cd3dc48d876913816a1e5df1c44d2",
      "function": "execute((address,address,uint256,uint256,uint48,bytes,bytes))",
      "arguments": [
        "(0xcf4F1999197400fF25445FFbC22CEA917758144d, 0x786BeE5292B12AA79725cb66f0CBfb7E10A6CAc9, 0, 1000000, 281474976710655, 0x890d6908, 0x2cc3b0249f50124ce9fb5b0e58a277445f2da94bca01eb93b25c667979068dca3ee5e263ac62fe6ffecb844ca47bcba0161ee352f0896f31afef3b32c373deed1b)"
      ],
      "transaction": {
        "from": "0xcf4f1999197400ff25445ffbc22cea917758144d",
        "to": "0x410355127f7cd3dc48d876913816a1e5df1c44d2",
        "gas": "0x1125c",
        "value": "0x0",
        "input": "0xdf905caf0000000000000000000000000000000000000000000000000000000000000020000000000000000000000000cf4f1999197400ff25445ffbc22cea917758144d000000000000000000000000786bee5292b12aa79725cb66f0cbfb7e10a6cac9000000000000000000000000000000000000000000000000000000000000000000000000000000000000000000000000000000000000000000000000000f42400000000000000000000000000000000000000000000000000000ffffffffffff00000000000000000000000000000000000000000000000000000000000000e000000000000000000000000000000000000000000000000000000000000001200000000000000000000000000000000000000000000000000000000000000004890d69080000000000000000000000000000000000000000000000000000000000000000000000000000000000000000000000000000000000000000000000412cc3b0249f50124ce9fb5b0e58a277445f2da94bca01eb93b25c667979068dca3ee5e263ac62fe6ffecb844ca47bcba0161ee352f0896f31afef3b32c373deed1b00000000000000000000000000000000000000000000000000000000000000",
        "nonce": "0x3",
        "chainId": "0x92"
      },
      "additionalContracts": [],
      "isFixedGasLimit": false
    }
  ],
  "receipts": [
    {
      "status": "0x1",
      "cumulativeGasUsed": "0x10bca2",
      "logs": [],
      "logsBloom": "0x00000000000000000000000000000000000000000000000000000000000000000000000000000000000000000000000000000000000000000000000000000000000000000000000000000000000000000000000000000000000000000000000000000000000000000000000000000000000000000000000000000000000000000000000000000000000000000000000000000000000000000000000000000000000000000000000000000000000000000000000000000000000000000000000000000000000000000000000000000000000000000000000000000000000000000000000000000000000000000000000000000000000000000000000000000000",
      "type": "0x2",
      "transactionHash": "0xd09afacaa3fce771278dd6b8975e12c9dea7f2d8199008a314c8982acb7d28fe",
      "transactionIndex": "0x2",
      "blockHash": "0x64f1a428d281a8bb1008391b1f438e5a0f69ce7a6e0d7cf4ef873d77d9643e1b",
      "blockNumber": "0x17c7517",
      "gasUsed": "0xc446",
      "effectiveGasPrice": "0xba43b7401",
      "from": "0xcf4f1999197400ff25445ffbc22cea917758144d",
      "to": "0x410355127f7cd3dc48d876913816a1e5df1c44d2",
      "contractAddress": null
    }
  ],
  "libraries": [],
  "pending": [],
  "returns": {},
  "timestamp": 1746596890,
  "chain": 146,
  "commit": "8cacecb"
}