{
  "transactions": [
    {
      "hash": "0x781de231d3634f5f3f6c96d4489738bfcd869c99118eb5a5e534ee3346b91c2e",
      "transactionType": "CALL",
      "contractName": null,
      "contractAddress": "0x410355127f7cd3dc48d876913816a1e5df1c44d2",
      "function": "execute((address,address,uint256,uint256,uint48,bytes,bytes))",
      "arguments": [
        "(0xcf4F1999197400fF25445FFbC22CEA917758144d, 0x786BeE5292B12AA79725cb66f0CBfb7E10A6CAc9, 0, 1000000, 281474976710655, 0x890d6908, 0xee66c3a8e8f2fc7c162612c336a80653ca10da389158eda00fd4c9ea4d53c4980bd88759f776355002821109cd89b472ad972e2129f05aad48f978affc2dea591c)"
      ],
      "transaction": {
        "from": "0xcf4f1999197400ff25445ffbc22cea917758144d",
        "to": "0x410355127f7cd3dc48d876913816a1e5df1c44d2",
        "gas": "0x83e78",
        "value": "0x0",
        "input": "0xdf905caf0000000000000000000000000000000000000000000000000000000000000020000000000000000000000000cf4f1999197400ff25445ffbc22cea917758144d000000000000000000000000786bee5292b12aa79725cb66f0cbfb7e10a6cac9000000000000000000000000000000000000000000000000000000000000000000000000000000000000000000000000000000000000000000000000000f42400000000000000000000000000000000000000000000000000000ffffffffffff00000000000000000000000000000000000000000000000000000000000000e000000000000000000000000000000000000000000000000000000000000001200000000000000000000000000000000000000000000000000000000000000004890d6908000000000000000000000000000000000000000000000000000000000000000000000000000000000000000000000000000000000000000000000041ee66c3a8e8f2fc7c162612c336a80653ca10da389158eda00fd4c9ea4d53c4980bd88759f776355002821109cd89b472ad972e2129f05aad48f978affc2dea591c00000000000000000000000000000000000000000000000000000000000000",
        "nonce": "0x83",
        "chainId": "0x92"
      },
      "additionalContracts": [],
      "isFixedGasLimit": false
    }
  ],
  "receipts": [
    {
      "status": "0x1",
      "cumulativeGasUsed": "0x244a63",
      "logs": [
        {
          "address": "0xec83a9d2a4d1fbd20b062297a1996f17803ee4a4",
          "topics": [
            "0x842fb24a83793558587a3dab2be7674da4a51d09c5542d6dd354e5d0ea70813c",
            "0x000000000000000000000000cf4f1999197400ff25445ffbc22cea917758144d"
          ],
          "data": "0x00000000000000000000000000000000000000000000000000000000000000050000000000000000000000000000000000000000000000000000000000000001",
          "blockHash": "0x6f89e45c6d54b796ba83e3228b387895bb959b36dd8a51e8ab3f934fcc2f6220",
          "blockNumber": "0x17c9fac",
          "transactionHash": "0x781de231d3634f5f3f6c96d4489738bfcd869c99118eb5a5e534ee3346b91c2e",
          "transactionIndex": "0x3",
          "logIndex": "0x4a",
          "removed": false
        }
      ],
      "logsBloom": "0x00002000000800000000000000000000000000000084000000000000000000000000000000000000000000000000000000000000000000000000000000000000000000000000000000000000000000000000000000000000000000000000000000000000000000000002000000000000000000000000000000000000000000000004000400000000000000000000000000000000000000000000000000000000000000000000000000000000000000000000000000000000000000000000000000000000000000000080000000000000000000000000000000000000000000000000000000000400000000000000000000000000000000000000000000000000",
      "type": "0x2",
      "transactionHash": "0x781de231d3634f5f3f6c96d4489738bfcd869c99118eb5a5e534ee3346b91c2e",
      "transactionIndex": "0x3",
      "blockHash": "0x6f89e45c6d54b796ba83e3228b387895bb959b36dd8a51e8ab3f934fcc2f6220",
      "blockNumber": "0x17c9fac",
      "gasUsed": "0x1de18",
      "effectiveGasPrice": "0xba43b7401",
      "from": "0xcf4f1999197400ff25445ffbc22cea917758144d",
      "to": "0x410355127f7cd3dc48d876913816a1e5df1c44d2",
      "contractAddress": null
    }
  ],
  "libraries": [],
  "pending": [],
  "returns": {},
  "timestamp": 1746600664,
  "chain": 146,
  "commit": "8cacecb"
}